:020000040800F2
:1000000000000220555F0008DD210008DF21000804
:10001000E1210008E3210008E521000800000000BC
:10002000000000000000000000000000A1580008CF
:10003000E72100080000000041590008335400087F
:10004000A55F0008A55F0008A55F0008A55F000880
:10005000A55F0008A55F0008A55F0008A55F000870
:10006000A55F0008A55F0008A55F0008A55F000860
:10007000A55F0008A55F0008A55F0008A55F000850
:10008000A55F0008A55F0008A55F0008A55F000840
:10009000A55F0008A55F0008A55F0008A55F000830
:1000A000A55F0008E9210008A55F0008A55F00081A
:1000B000A55F0008A55F0008A55F0008A55F000810
:1000C000A55F0008A55F0008A55F0008A55F000800
:1000D000A55F0008A55F0008A55F0008A55F0008F0
:1000E000A55F0008A55F000800000000A55F0008EC
:1000F000A55F0008A55F0008A55F0008A55F0008D0
:10010000A55F0008A55F0008A55F0008A55F0008BF
:10011000A55F0008A55F0008A55F0008A55F0008AF
:10012000A55F0008A55F0008A55F0008A55F00089F
:10013000A55F0008A55F0008A55F0008A55F00088F
:1001400000000000000000000000000000000000AF
:10015000A55F0008A55F0008A55F0008A55F00086F
:10016000A55F0008A55F0008A55F0008A55F00085F
:10017000A55F0008A55F0008A55F0008A55F00084F
:10018000A55F0008A55F0008A55F0008A55F00083F
:10019000A55F0008A55F0008A55F0008A55F00082F
:1001A000A55F0008A55F0008A55F0008000000002B
:1001B000A55F0008A55F0008A55F0008A55F00080F
:1001C000A55F0008A55F0008000000000000000017
:1001D0000000000000000000A55F00080000000013
:1001E000000000000000000000000000000000000F
:1001F0000000000000000000A55F0008A55F0008E7
:10020000A55F0008A55F000800000000A55F0008CA
:10021000A55F0008A55F0008A55F0008A55F0008AE
:10022000A55F000800000000A55F000800000000B6
:10023000A55F0008A55F000800000000A55F00089A
:10024000A55F0008A55F0008A55F0008A55F00087E
:10025000A55F0008A55F0008A55F0008A55F00086E
:10026000A55F0008A55F0008A55F0008A55F00085E
:10027000A55F0008A55F0008A55F0008000000005A
:10028000A55F0008A55F0008A55F0008A55F00083E
:1002900000000000A55F0008A55F0008A55F00083A
:1002A000A55F0008A55F0008A55F0008A55F00081E
:1002B000A55F0008A55F0008A55F0008A55F00080E
:0C02C000A55F0008A55F0008A55F00080E
:1002E0000348044B834202D0034B03B118477047C5
:1002F0005C0800205C08002000000000054806495A
:100300000B1AD90F01EBA301491002D0034B03B123
:10031000184770475C0800205C08002000000000BF
:1003200010B5064C237843B9FFF7DAFF044B13B13D
:100330000448AFF300800123237010BD5C08002047
:10034000000000002870000808B5044B1BB10449E8
:100350000448AFF30080BDE80840CFE7000000008C
:10036000600800202870000808B5062000F096FC00
:10037000012001F031FF00BF002301461A46184654
:1003800000F03CBE38B50A4C0A4D641BA4100AD0DC
:1003900004F18043013B05EB8305013C55F804392A
:1003A0009847002CF9D1BDE8384006F043BE00BFA5
:1003B000447500084075000870B50D4E0D4D761B54
:1003C000B61006D00024013455F8043B9847A642E5
:1003D000F9D1094E094D761B06F026FEB61006D05F
:1003E0000024013455F8043B9847A642F9D170BD6A
:1003F000347500083475000840750008347500082D
:10040000024B0146186800F00BB800BF0000002046
:10041000024B0146186800F075BE00BF00000020C6
:100420002DE9F04F01F10B05162D83B0064623D8B8
:10043000102900F2B98000F08FFB1025182302204C
:10044000CD4F3B44A3F108025C68944200F0B980B0
:10045000636823F003032344D4E902515A68E96036
:1004600042F0010230468D605A6000F077FB08349C
:10047000204603B0BDE8F08F35F0070500F1948009
:10048000A94200F2918000F067FBB5F5FC7FC0F057
:100490009D816B0A00F08F80042B00F27381AB0901
:1004A00003F1390003F1380CC300B34F3B44A3F10F
:1004B00008015C68A14206D10CE0002A80F22B8181
:1004C000E468A14206D0636823F003035A1B0F2A95
:1004D000F3DD60463C69DFF8A4C264457CD0636804
:1004E00023F003035A1B0F2A00F37E81002AC7E979
:1004F00004CC80F26F81B3F5007F80F01A81DB08B5
:10050000591C7A6857F83180C4F808804FF0010E02
:100510009B100EFA03F307EBC10E1343AEF1080272
:10052000E2607B6047F83140C8F80C40821001243B
:1005300094409C4256D81C4206D120F0030064002F
:100540001C4200F10400FAD007EBC009CE468046F9
:10055000DEF80C309E4507D120E1002A80F2278189
:10056000DB689E4500F01A81596821F003014A1B9F
:100570000F2AF2DDD3E9028E5C1945F001055D60BA
:1005800042F00105C8F80CE03046CEF80880C7E913
:100590000444C4E902CC65605A50009300F0DEFACE
:1005A000009B03F1080402E00C2333600024204682
:1005B00003B0BDE8F08F4FF4007340204FF03F0CC4
:1005C00073E7DC68A34208BF02307FF441AF3C69A7
:1005D000DFF8A8C1644582D17B6882100124944071
:1005E0009C42A8D9BC68636823F00308A84503D3DC
:1005F000A8EB05030F2B7EDCDFF88491D7F80824E5
:10060000D9F80030013204EB080A2B4400F037819E
:1006100003F580530F3323F47F6B2BF00F0B5946F8
:10062000304600F09DFA411C024600F0F7808245FA
:1006300000F2F280D9F804105944C9F804100B46AE
:1006400000F05381D7F8081401311BBFA2EB0A0A4E
:100650005344C7F80824C9F8043012F0070300F027
:100660001A81C3F108010A44C3F58051934408314B
:10067000A1EB0B01C1F30B0A5146304601930092E6
:1006800000F06EFA421CDDE9002300F05381831A6A
:1006900003EB0A0BD9F80410BA604BF00103514484
:1006A000BC425360C9F8041000F02B81B8F10F0F61
:1006B00040F229816368A8F10C0020F0070003F0E4
:1006C000010304EB000C03434FF0050E0F28636099
:1006D000CCE901EE00F2358153681446D9F82C209C
:1006E0008A42D9F8302038BFC9F82C108A4238BF66
:1006F000C9F8301094E0621943F0010345F0010598
:1007000065603046BA60536000F028FA083420462D
:1007100003B0BDE8F08F2344E1685A68A56842F051
:100720000102E96030468D605A6000F017FA083423
:100730003DE75A0A042A69D9142A00F2BE8002F160
:100740005C01C9005B3207EB010E7958AEF1080E6F
:100750008E4500F097804A6822F003029A4202D93F
:1007600089688E45F7D1D1F80CE07B68C4E9021E98
:10077000CEF80840CC60D9E63004002038040020D0
:1007800078080020142B59D9542B00F29E802B0B93
:1007900003F16F0003F16E0CC30086E608F1010857
:1007A00018F0030F0EF1080E7FF4D2AE51E0194499
:1007B0001C464A68DB6854F8085F42F001024A6050
:1007C0003046EB609D6000F0C9F9F0E6E80805F1FD
:1007D000080335E6234430465A6842F001025A6065
:1007E000083400F0BBF9E2E6611945F0010E42F071
:1007F0000105C4F804E03046C7E90411C1E902CCA0
:100800004D60E25000F0AAF90834D0E69A0902F1EE
:100810003901C900383296E7BC4260D0BC686368D1
:1008200023F0030BAB45ABEB050302D30F2B3FF7D4
:1008300062AF304600F092F90024B8E603F15C00A4
:1008400003F15B0CC30030E659F808394B4540F022
:10085000968010F0030F00F1FF30F5D17B6823EA9A
:1008600004037B6064009C423FF6BCAE1CB9B9E651
:10087000640008F104081C42FAD0404664E603F123
:10088000100BCCE67B6892104FF0010808FA02F2D8
:1008900013437B606AE702EB0B014942C1F30B0A89
:1008A000514630460193009200F05AF9431CDDE9AD
:1008B00000237FF4ECAE9A46ECE6542A26D81A0BB5
:1008C00002F16F01C9006E323DE7B3F5AA7F26D869
:1008D000EB0B03F1780003F1770CC300E5E5D9F8E1
:1008E00004305B44C9F80430ACE6CAF30B000028BE
:1008F0007FF4A8AE08EB0B03BC6843F00103636010
:10090000ECE61446EAE60123536092E7B2F5AA7FCB
:1009100021D8DA0B02F17801C900773213E740F2EF
:100920005452934221D8AB0C03F17D0003F17C0CAF
:10093000C300BAE5083B9B44ABEB020B4FF0000A47
:10094000A8E604F10801304600F0DCFBBC68D9F8E9
:1009500004106368C2E640F254518A420BD89A0CE4
:1009600002F17D01C9007C32EDE64FF47E737F20F9
:100970004FF07E0C99E54FF47E717E22E3E67B68B2
:1009800070E700BF844641EA000313F003036DD112
:10099000403A41D351F8043B40F8043B51F8043B42
:1009A00040F8043B51F8043B40F8043B51F8043B49
:1009B00040F8043B51F8043B40F8043B51F8043B39
:1009C00040F8043B51F8043B40F8043B51F8043B29
:1009D00040F8043B51F8043B40F8043B51F8043B19
:1009E00040F8043B51F8043B40F8043B51F8043B09
:1009F00040F8043B51F8043B40F8043B51F8043BF9
:100A000040F8043B51F8043B40F8043B51F8043BE8
:100A100040F8043B403ABDD2303211D351F8043B88
:100A200040F8043B51F8043B40F8043B51F8043BC8
:100A300040F8043B51F8043B40F8043B103AEDD237
:100A40000C3205D351F8043B40F8043B043AF9D288
:100A5000043208D0D2071CBF11F8013B00F8013B5B
:100A600001D30B8803806046704700BF082A13D368
:100A70008B078DD010F003038AD0C3F10403D21A80
:100A8000DB071CBF11F8013B00F8013B80D331F8B4
:100A9000023B20F8023B7BE7043AD9D3013A11F834
:100AA000013B00F8013BF9D20B7803704B7843709F
:100AB0008B78837060467047F0B4860746D0541E2A
:100AC000002A3CD0CAB2034602E014F1FF3436D308
:100AD00003F8012B9D07F8D1032C29D9CDB245EAA3
:100AE00005250F2C45EA054533D9A4F11006360932
:100AF00003F1200707EB061703F1100242E9045542
:100B000042E902551032BA42F8D1721C14F00C0FAF
:100B100003EB021204F00F0613D0331F23F003037C
:100B20000433134442F8045B9342FBD106F0030400
:100B30002CB1C9B21C4403F8011B9C42FBD1F0BC90
:100B4000704734461346002CF3D1F8E714460346A9
:100B5000C2E71A462646E0E7704700BF704700BF6D
:100B600038B5074C002305460846236001F026FBF4
:100B7000431C00D038BD2368002BFBD02B6038BD50
:100B80005055002010B580210446FFF749FCC4F8F9
:100B9000DC0240B1031F00227C3043F8042F834263
:100BA000FBD1002010BD4FF0FF3010BDD0F8DC327B
:100BB0000BB100207047E5E71F2970B5054609D83D
:100BC000D0F8DC3216460C464BB153F8240043F8FB
:100BD000246070BD162202604FF0FF3070BDFFF739
:100BE000D1FF10B9D5F8DC32EFE74FF0FF3070BD20
:100BF0001F2938B522D8D0F8DC2205460C466AB148
:100C000052F8213053B1012B16D0591C10D00025B9
:100C1000204642F824509847284638BD284600F020
:100C200073F8224601462846BDE8384000F058B81F
:100C300016230360012038BD002038BD1623036051
:100C40004FF0FF3038BD00BF1F2923D838B5D0F88A
:100C5000DC3205460C4683B153F8242003EB8403B1
:100C60004AB1511C11D0012A0DD0002520461D602B
:100C70009047284638BD012038BDFFF783FF30B9C3
:100C8000D5F8DC32E8E7032038BD022038BD4FF04C
:100C9000FF3038BD4FF0FF30704700BF024B0146B8
:100CA0001868FFF7A5BF00BF00000020024B0A46EE
:100CB00001461868FFF780BF00000020034B18684A
:100CC000D0F8DC320BB1002070475BE70000002059
:100CD000024B01461868FFF7B7BF00BF00000020B5
:100CE00038B50B46074C05461146184600232360CD
:100CF00001F05CFA431C00D038BD2368002BFBD008
:100D00002B6038BD5055002001F048BA00000000AB
:100D100000000000000000000000000000000000D3
:100D2000A2EB0300704700BF02780B78012A28BFAE
:100D30009A42F5D16DE9044540EA0104CDE9026724
:100D40006FF0000C4FEA447212B380EA010414F011
:100D5000070F6AD100F0070420F0070004F0030534
:100D600021F007014FEAC505F0E8042314F0040F51
:100D7000F1E804670CFA05F462EA040266EA040684
:100D80000AD063EA0403624667EA0407664603E0A2
:100D9000F0E80423F1E8046782FA4CF582EA0604DD
:100DA000A4FA8CF46CBB83FA4CF583EA0705A5FA28
:100DB0008CF595B950E9022351E9026782FA4CF5A6
:100DC00082EA0604A4FA8CF483FA4CF583EA070558
:100DD000A5FA8CF52543DBD09CB92DBAB5FA85F47C
:100DE00024F0070427FA04F1DDE9026723FA04F38B
:100DF00003F0FF0001F0FF01FDE80445A0EB010056
:100E0000704724BAB4FA84F424F0070426FA04F1F3
:100E1000DDE9026722FA04F202F0FF0001F0FF01AF
:100E2000FDE80445A0EB0100704714F0030F3CD12E
:100E300010F0030428D150F8082B51F8083B82FA2F
:100E40004CF582EA0305A5FA8CF55DB950F8042C3F
:100E500051F8043C82FA4CF582EA0305A5FA8CF5B8
:100E6000002DE8D02DBAB5FA85F424F0070423FA52
:100E700004F122FA04F202F0FF0001F0FF01FDE8A4
:100E80000445A0EB010070474FEAC40420F00300C2
:100E900050F8082B21F0030151F8083B0CFA04F438
:100EA00062EA040263EA0403C9E710F003041AD0FB
:100EB000A1EB040120F00300E40750F8042B06D056
:100EC0000FD28B785FFAA2F4E41A06D12BB1CB785B
:100ED0005FFAB2F4E41A00D11BB920465DF8104B5A
:100EE000704701F1040150F8042BCC0721F00301F5
:100EF00051F8043B48D824D222F07F4482FA4CF5C2
:100F000094EA1325A5FA8CF50AD165B951F8043B8A
:100F100084EA0204B4EB036F0ED150F8042BEBE724
:100F20004FEA132355E035F07F454DD10878FDE8B1
:100F30000445C0F1000070474FEA126203F0FF035E
:100F400047E002EA1C4482FA4CF594EA1345A5FAFC
:100F50008CF50AD165B951F8043B84EA0204B4EB7C
:100F6000034F0CD150F8042BEBE74FEA134330E06A
:100F700015EA1C4528D10B884FEA124229E04FEAB6
:100F8000124203EA1C4324E002F0FF0482FA4CF50B
:100F900094EA1365A5FA8CF50AD165B951F8043BBA
:100FA00084EA0204B4EB032F09D150F8042BEBE7D9
:100FB0004FEA13630DE015F0FF0F05D10B684FEA00
:100FC000122223F07F4304E04FF00000FDE80445C7
:100FD000704712BA1BBA82FA4CF482EA0304A4FAEC
:100FE0008CF5B5FA85F402FA04F203FA04F34FEA39
:100FF0001260FDE80445A0EB13607047F0B4184C94
:101000002568D5F8484114B365681F2D24DC38B92C
:10101000AB1C0135656044F823100020F0BC70471C
:1010200004EB85060127C6F8882007FA05F2D4F8F4
:101030008871022847EA0207C4F88871C6F80831A7
:10104000E6D1D4F88C311A43C4F88C21E0E705F5D9
:10105000A674C5F84841D7E74FF0FF30DEE700BF80
:1010600040700008F8B5244F0C460646FFF774FDA3
:10107000BB685D68C4F57E610F3125F00305294426
:1010800021F47F6121F00F01A1F58054B4F5805F58
:1010900007DB00213046FFF763FDBB682B44984215
:1010A00004D03046FFF75AFD0020F8BD61423046BB
:1010B000FFF756FD01300DD0104BBA6819682D1B93
:1010C00045F001053046091B55601960FFF746FDE4
:1010D0000120F8BD00213046FFF742FDBA68831AAF
:1010E0000F2BDEDD064C0549246843F00103001B8D
:1010F00053600860D5E700BF300400207C08002062
:101100003808002000295ED0F8B50F460646FFF7E4
:1011100023FD57F804CC754D2CF00103A7F108000E
:10112000C218A9685468914224F0030400F0848036
:101130001CF0010F546002EB040133D157F808ECA6
:101140004968A0EB0E0005F1080C876867457344F9
:1011500001F0010160D0D0F80CE0C7F80CE0CEF847
:101160000870002900F08D8043F001014160136098
:10117000B3F5007F30D2DB08591C6C689A1001234C
:101180009340234305EBC10255F831406B60083AA8
:10119000C0E9024245F83100E0603046BDE8F84061
:1011A000FFF7DCBC4968C9070ED4234405F1080CDD
:1011B0009168614543F001046BD0D268CA609160C8
:1011C0004460C350D4E7704743F00101B3F5007F9A
:1011D00047F8041C1360CED35A0A042A46D89A0949
:1011E00002F13907FF0002F13801EC19EA59083C15
:1011F000944255D0516821F00301994202D9926876
:101200009442F7D1D468C0E90224A060D06030468F
:10121000BDE8F840FFF7A2BC002962D1D2E9022163
:10122000234443F00104D1608A604460C3503046D7
:10123000BDE8F840FFF792BC1CF0010F234407D132
:1012400057F8082C801A1344D0E90212CA60916042
:10125000274A126843F001019A424160A8609CD875
:10126000244B30461968FFF7FDFE96E7142A0AD989
:10127000542A1DD81A0B02F16F07FF0002F16E010C
:10128000B3E7234494E702F15C07FF0002F15B013E
:10129000ABE7C5E90400C0E902CC4460C3507CE779
:1012A0006B688910012707FA01F119436960AAE701
:1012B000B2F5AA7F06D8DA0B02F17807FF0002F137
:1012C000770192E740F254518A4206D89A0C02F113
:1012D0007D07FF0002F17C0187E74FF47E777E21D6
:1012E00083E743F001014160136056E730040020BA
:1012F0003C0800207808002003685A004CBF43F0E7
:10130000004323F000431844704700BF2DE9F84321
:1013100029B34F1E044615463E464FF0000808EB21
:10132000060101EBD171491004EBC1094846FFF7F2
:10133000E3FF0346C80008308F42204409D0AB4287
:1013400009D8FFF7D9FF0138A8420AD201F10108F4
:10135000E5E7AB4205D9884501D04E1EDFE74FF0E7
:1013600000094846BDE8F883012807D0022807D0C5
:10137000044B00280CBF18460020704702487047F5
:10138000024870472D1A0008311A0008351A000863
:1013900030B5234B83B004468D1E3BB301A92846CC
:1013A000AFF30080E8B101992A46FFF7AFFF01468D
:1013B000B8B1FFF7A1FF4B68A064012B2BD0002B25
:1013C00001F1040023DBFFF797FF0023C4E91303B7
:1013D0000368002B10DBFFF78FFF2061002003B0B4
:1013E00030BD00230920236103B030BD0D490E48F4
:1013F000091AC9100191D7E7C3F30360FFF7B4FFDF
:101400000028206114BF0020092003B030BD012353
:10141000C4E91303DCE7002323610520DFE700BFF5
:1014200000000000347500086C7300080368DA07D8
:1014300010B5044606D49B0700F1480009D500F01A
:101440004BFC2368590709D51A070ED5DB0613D5BF
:1014500010BD00F039FC23685907F5D404F1D00021
:1014600000F042FC23681A07F0D404F5A87000F0DD
:1014700043FC2368DB06EBD404F5E870BDE81040BC
:1014800000F07EBC0346006800B11844704700BFFE
:1014900009207047704700BF70B504460E46316C96
:1014A0002046FFF775FF054688B9336C6361324605
:1014B00023692146012098470828F0D0072806D143
:1014C0002846316CFFF7E6FF301D00F0F1FBFEF718
:1014D0004BFF00BF2DE9F0470D1D064614460FCD0A
:1014E000ADF5727D0DF10C0CACE80F000FCDACE842
:1014F0000F000FCDACE80F0095E80F0002ADF768C4
:10150000D6F818808CE80F0000232B6021E02B6CAC
:1015100073614FF4F07229467AA8FFF733FA336902
:101520007AAA314650469847889BCDE90058214613
:101530006B648146334632460120B8470446E8B919
:101540004FF4F0727AA92846FFF71CFAB9F1080F98
:101550001BD1296C3046FFF71BFF09345FFA84FA70
:1015600081460028D3D0AB6B4AF01001CDE900587A
:1015700032466B6401203346B84708B14FF0090981
:1015800048460DF5727DBDE8F087B9F1070FF5D13A
:101590002046296CFFF77EFF03A800F089FB00BFFF
:1015A000406C7047F0B5CB6B0B640E1D0F460546C3
:1015B0000FCEF9B001AC0FC40FCE0FC40FCE0FC4C5
:1015C00096E80F004FF0FF3684E80F00009606E023
:1015D0002B696A46294698470828044608D110997D
:1015E0002846FFF7D5FE0028F2D0092079B0F0BDDB
:1015F0006846FFF71BFF062CF7D139462846FFF750
:101600004BFF00BF30B4DD6BC160826119461D64C1
:10161000002230BC5EE700BF70B5C66843690B644A
:10162000AEB903690A4604460D46014602209847B2
:10163000072805D008280FD129462046FFF72CFFA0
:101640003046296CFFF726FF281D00F031FB0122F0
:10165000FFF740FFFEF788FEFEF786FEC2681AB16C
:10166000CA6B0A64002235E79CE700BF704700BFE1
:10167000836801460BB1012018477047012912D039
:1016800009D873B90F2A0CD800EB820218465368A8
:10169000009A136070470339012994BF012002208A
:1016A0007047022070470846704700BF10B584B0ED
:1016B000002303AC0A4600941946FFF7DFFF0398A6
:1016C00004B010BD012912D009D873B90F2A0CD863
:1016D00000EB8200009A1268426018467047033996
:1016E000012994BF0120022070470220704708465C
:1016F000704700BF10B584B0002303AC0392009480
:101700000A461946FFF7DEFF04B010BDF0B5D36BF3
:101710001364151D8C4606460FCDADF50F7D17AC35
:101720000FC40FCD0FC40FCD0FC495E80F004FF0BD
:10173000FF3784E80F006546169710E0FFF7DAFFE1
:10174000294616A8B047034616AA6946082083B959
:10175000049B9847052804460CD0092809D02699EF
:101760006846FFF715FE03466A460C2116A8002BB3
:10177000E4D0092416A8FFF759FE20460DF50F7D89
:10178000F0BD00BF2DE9F04FCC6C89B00D4654F888
:10179000041B0694174600F003081E46002B79D060
:1017A0000B0CDAB209048DF81D30022304EB82041D
:1017B00005918DF81C302B6DB8F1020F08BFAC6B92
:1017C00013F001030CD0384605A900F073FB18B9DB
:1017D000082009B0BDE8F08F092009B0BDE8F08FFE
:1017E000D4F800A0BAF1000FEDD0019300F0080387
:1017F0000293022E4AD0B4F800A0B4F80290043448
:10180000AA6C29F0010B0F2138469344FFF74EFFD5
:10181000834539D82AF001025A44824294BF0020FD
:1018200001204FEA490303F002030AF0010A43EAE8
:101830000A03012B49D0022B32D0002BCCD1B8F1B6
:10184000000F02D0002840F0CD800434D4F800A06E
:10185000BAF1000FCDD105A9384600F02BFB0028C6
:10186000BAD1019B002BB3D00F213846FFF71EFFE2
:101870000E2102463846FFF73DFF38466A4A0F21DF
:10188000FFF738FF0720A8E70020CAE7D4F8049044
:101890000834B5E7090203230591ADF81C308AE747
:1018A000236823F0004BB8F1000F45D128B1029A0C
:1018B000002A5CD0BBF1000F74D0002B00DA043496
:1018C0000BF1010B04EB8B04C0E7B8F1000F19D149
:1018D000B0B1D4E90023991C4FEAD2723FF47CAF37
:1018E00005F158010133049100F09080201DFFF7AD
:1018F000C9FD04AB0146284604F05EFB00285BD11D
:101900000834A3E70D213846D5F82090FFF7CEFE26
:101910008145F5D1AB6A9C42F2D12046FFF7ECFC41
:101920000F2102463846FFF7E5FE38462A460021D9
:10193000FFF7E0FE072050E70D213846D5F820904C
:10194000FFF7B4FE814501D02368B6E7AB6A9C423D
:10195000FAD104220021C5E90B12A318C5F828B05A
:101960006B6323688B4259DB01230193A8E705F1E0
:101970005803CDF80C8004F1040AB04691461E4687
:101980000DE00496FFF77EFD04AB014600222846D9
:1019900004F012FB09F101090AF1040AE8B9D9457A
:1019A0005046EED138460D21FFF780FE049B286299
:1019B000C5E90934062010E781460D213846FFF7B6
:1019C00075FEB9F1020F286225D12B46049A43F81F
:1019D0002C2F6B62AC620620FFE646462368DDF8DA
:1019E0000C806AE72046FFF787FC04340246AC63AC
:1019F0002846144604F040FB00283FF4EDAE38467C
:101A000022460F21FFF776FE0720E6E638460D2135
:101A1000FFF74CFE2862049B6B62DBE70BF10100D1
:101A200004EB80007AE700BFB96C00080023A9E648
:101A30000123A7E60223A5E62DE9F0430646C3B03D
:101A400015461C46042900F2B980DFE801F09A53DC
:101A5000B7290300002C40F0B180102A00F2AE80BC
:101A60000368D80600F1F38020AF384600F092F901
:101A7000B06B0023012404FA03F22A42014604D089
:101A800051F8042B47F8232008460133042BF2D1E8
:101A9000B063384600F074F9002043B0BDE8F0832D
:101AA000032C40F08B8094B204EB1243102B4FEACE
:101AB000124500F2838003681F0700F1D08020AF39
:101AC000384600F03BF907EBC501B56B54B10B4646
:101AD000E81A01EBC401E4001A5843F8042B8B42C6
:101AE000FAD125443846B56300F006F9002043B02A
:101AF000BDE8F083012C4FEA124895B25AD0052C6C
:101B00005CD108EB0509B9F1200F57D8B8F10F0FD8
:101B100077D9A946002D40F08880B36B6DB320AF14
:101B20004FF0000907EBC807043F03EBC50553F866
:101B3000041B47F8041FAB42F9D1B9F1000F0FD0D5
:101B40006F464146102938BF102107EBC101843987
:101B500003EBC90553F8040B41F8040FAB42F9D16C
:101B6000012C00F08480B8F10F0FB56345D9B9F1AD
:101B7000000F02D0684600F0B7F8002043B0BDE87F
:101B8000F083DCB9876B2346012094B206F1040C84
:101B900000FA03F22242394604D051F8042B4CF8E3
:101BA00023200F460133102BF2D115F40050E4D15D
:101BB000B76304E008EB0503102B03D9022043B000
:101BC000BDE8F083B8F10F0FF8D83368DA0706D50F
:101BD000304623F0030340F8483B00F079F820AF8B
:101BE000384600F075F8B36B002D99D11D460435C9
:101BF000B563384600F068F8BFE720A800F06CF83D
:101C0000B5E7B9F1100F40D9A9F110093368D90728
:101C100008D523F00103304643F0020340F8483B67
:101C200000F05EF8B9F1000F32D033685A0720D4C3
:101C3000B8F10F0F25D96F463846C8F1100500F0EE
:101C400057F8002DB36B7FF77CAF20AF6AE723F026
:101C50001003336006F5E87000F09CF804E723F009
:101C60000803036000F5A87000F068F827E720AFCC
:101C7000BDE7304623F0040340F8D03B00F038F8CD
:101C8000D6E720A800F02CF8D5E74FF00009BDE713
:101C9000B8F10F0F3FF641AF20AF384600F020F803
:101CA000B36B002D7FF43CAF384600F015F864E7C5
:101CB00000F1340191E838009C46A6464CF8045DDA
:101CC00090E8FF0FE54600BD90EC210B704700BF88
:101CD00080EC210B704700BF90EC200B704700BFD9
:101CE00080EC200B704700BFD0EC200B704700BF8A
:101CF000C0EC200B704700BFF0EC0201F0EC0211C9
:101D0000F0EC0221F0EC0231F0EC0241F0EC025177
:101D1000F0EC0261F0EC0271F0EC0281F0EC029167
:101D2000F0EC02A1F0EC02B1F0EC02C1F0EC02D157
:101D3000F0EC02E1F0EC02F1704700BFE0EC0201D0
:101D4000E0EC0211E0EC0221E0EC0231E0EC0241B7
:101D5000E0EC0251E0EC0261E0EC0271E0EC0281A7
:101D6000E0EC0291E0EC02A1E0EC02B1E0EC02C197
:101D7000E0EC02D1E0EC02E1E0EC02F1704700BFE0
:101D8000B0FC0181B0FC0191B0FC01A1B0FC01B13B
:101D9000704700BFA0FC0181A0FC0191A0FC01A143
:101DA000A0FC01B1704700BFEC4600B52DE9005022
:101DB0002DE9FF1F4FF000032DE90C0001A9FFF7EB
:101DC000F1FBDDF840E012B0704700BFEC4600B513
:101DD0002DE900502DE9FF1F4FF000032DE90C0005
:101DE00001A9FFF719FCDDF840E012B0704700BF11
:101DF000EC4600B52DE900502DE9FF1F4FF0000320
:101E00002DE90C0001A9FFF729FCDDF840E012B034
:101E1000704700BFEC4600B52DE900502DE9FF1FCB
:101E20004FF000032DE90C0001ABFFF7EBFBDDF8F1
:101E300040E012B0704700BFEC4600B52DE90050FD
:101E40002DE9FF1F4FF000032DE90C0001AAFFF759
:101E50005DFCDDF840E012B0704700BF027A7AB94D
:101E6000437AA3B14268013B10B443721368032163
:101E7000141D01721A024460026010BC180E7047F3
:101E80000368013A02721A020260180E7047B0200D
:101E9000704700BF00B585B003AA00230092194621
:101EA0000C22FFF7EBFB039805B05DF804FB00BFC5
:101EB000F0E700BF2DE9F043054685B00E464FF030
:101EC00000083046FFF7CAFFB028044600F0B28091
:101ED000070620D500F0F003802B4DD0902B36D094
:101EE000A02B60D0B02B74D0C02B00F08B8000F002
:101EF000F803D02B0BD100F00702013242F400228C
:101F0000052301212846FFF797FD0028D9D0092095
:101F100005B0BDE8F0830DF10C09002319468700D8
:101F2000CDF800900D222846FFF7A8FBFFB2039BD7
:101F3000CDF80090043760064CBFDF1BFF1800236C
:101F400019460D2228460397FFF7BCFBB9E700F0BE
:101F50000D030D2BDBD003AF002300F00F02194659
:101F600000972846FFF78AFB0023009719460D22A9
:101F70002846FFF7A7FBA4E73046FFF76FFF2402D0
:101F80002043B0F5004FC2D004010023A2B219468D
:101F90002846FFF751FD0028B9D114F4004F18BFAF
:101FA0004FF001088DE7C24302F007034FF47F6250
:101FB0001A41010702F47F624FF0000348BF42F468
:101FC000804219462846FFF737FD00283FF479AFD5
:101FD0009DE7B12833D0B22800F08B80B32839D0E8
:101FE00000F0FC03B42B92D000F007020132012371
:101FF00042F4002219462846FFF71EFD00283FF450
:1020000060AF84E7C62842D0C7284CD000F0F80360
:10201000C02B5BD0C82860D0C9287FF478AF304689
:10202000FFF71CFF020300F00F0002F470220130E2
:10203000024365E7B8F1000F18D0002068E730468A
:10204000FFF70CFF024600283FF461AF10F0F003E9
:10205000D0D05CE73046FFF701FF010300F00F002E
:1020600001F47021421C01230A43C3E703AC434639
:102070000E22414600942846FFF700FB00942846B4
:1020800043460F224146FFF71DFB404640E73046DE
:10209000FFF7E4FE010300F00F0001F47021421C81
:1020A00003230A43A6E73046FFF7D8FE024600287E
:1020B0003FF42DAF10F0F0037FF429AF0421284640
:1020C000FFF7BAFC00283FF4FCAE20E700F00F0257
:1020D0000132032342F420228CE73046FFF7BEFE94
:1020E00000F0F00200F00F031032013343EA023235
:1020F00006E700230DF10C090D221946CDF80090DA
:102100002846FFF7BBFA3046FFF7A8FE02064FF05D
:1021100002070CD5039B00F07F00B8400344304613
:102120000393FFF79BFE030607F10707F2D4039B17
:10213000CDF8009000F07F0403F50172BC4000234D
:10214000144419460D2228460394FFF7BBFAB8E65B
:1021500010B5C26C84B0536803248DF80C401B0288
:1021600002F108040846D279019301A902948DF87E
:102170000D20FFF79FFE04B010BD00BF08B5FFF7AC
:1021800097FE806C08BD00BF08B5FFF791FEC06CDC
:10219000C379023300EB830008BD00BF024B582215
:1021A0001A604FF0FF30704750550020024B582204
:1021B0001A604FF0FF30704750550020044A05491F
:1021C0001368002B08BF0B46184410601846704770
:1021D000AC08002058550020FEE700BFFEE7FEE7F0
:1021E000FEE7FEE7FEE7704708B5024801F0EDF9AB
:1021F00008BD00BFB008002000B583B00A4BD3F87B
:10220000F42042F00202C3F8F420D3F8F43003F0D3
:1022100002030193019B00220F216FF0010000F0E7
:10222000A1F803B05DF804FB004402580368B3F161
:10223000804F00D0704782B0074BD3F8E82042F0BF
:102240000102C3F8E820D3F8E83003F0010301935A
:10225000019B02B0704700BF0044025800B587B030
:102260000023019302930393049305930368B3F14E
:10227000804F02D007B05DF804FB0B4BD3F8E02091
:1022800042F00102C3F8E020D3F8E03003F001038C
:102290000093009B0123019302220292059301A95E
:1022A000024800F03BFEE5E70044025800000258F7
:1022B0000F2801D90120704710B58AB004460022CA
:1022C0000146192000F04EF8192000F081F8174B54
:1022D0001C60174BD3F8F02042F00102C3F8F02045
:1022E000D3F8F03003F001030093009B01A902A88A
:1022F00000F0EAFD00F0D6FD43000E48A0FB0323EA
:102300009B0C013B0C480D4A026040F2E732C26070
:10231000436000230361836001F0B4FA10B101202F
:102320000AB010BD044801F0FBF8F9E744080020AA
:102330000044025883DE1B43B00800200000014027
:102340000649CB6823F4E0631B041B0C000200F475
:10235000E0600343024A1A43CA60704700ED00E0A0
:102360000000FA0500B5174BDB68C3F30223C3F185
:10237000070CBCF1040F28BF4FF0040C03F1040E4E
:10238000BEF1060F14D9033B4FF0FF3E0EFA0CFCD2
:1023900021EA0C0199400EFA03F322EA03031943E0
:1023A000002807DB0901C9B2074B19545DF804FB8B
:1023B0000023E9E700F00F000901C9B2034B1954EB
:1023C000F4E700BF00ED00E000E400E014ED00E001
:1023D000002807DB00F01F02400901239340024A56
:1023E00042F82030704700BF00E100E0002800F014
:1023F000D78238B50446036813F0010F25D0A04AF0
:10240000136903F03803926A102B15D0182B0FD0E4
:102410006368B3F5803F3FD0002B53D1984B1A68C7
:1024200022F480321A601A6822F480221A6038E09E
:1024300002F00302022AEBD1914B1B6813F4003F18
:1024400003D06368002B00F0AD82236813F0020F05
:1024500000F088808A4A1369926A13F038035AD0D0
:10246000182B55D0E368002B00F0A98084490A6836
:1024700022F0190213430B6000F0CEFE0546804B9C
:102480001B6813F0040F40F0918000F0C5FE401B64
:102490000228F4D903208CE2794A136843F480338C
:1024A000136063682BB300F0B7FE0546744B1B68DE
:1024B00013F4003FC9D100F0AFFE401B6428F5D9EA
:1024C000032076E2B3F5A02F09D06D4B1A6822F4F1
:1024D00080321A601A6822F480221A60E1E7684BA1
:1024E0001A6842F480221A601A6842F480321A6034
:1024F000D7E700F091FE0546614B1B6813F4003FDF
:10250000A3D000F089FE401B6428F5D9032050E2D7
:1025100012F0030FA6D15A4B1B6813F0040F03D01F
:10252000E368002B00F04082554A136823F019033A
:10253000E1680B43136000F06FFE0546504B1B68CB
:1025400013F0040F06D100F067FE401B0228F5D9F6
:1025500003202EE24A4A536823F0FE43216943EAEE
:1025600001635360236813F0100F51D0444A13697C
:1025700003F03803926A082B39D0182B33D0E36963
:10258000002B69D03E4A136843F08003136000F0CB
:1025900043FE05463A4B1B6813F4807F53D100F08D
:1025A0003BFE401B0228F5D9032002E2344A53685F
:1025B00023F0FE43216943EA01635360D2E7304AC6
:1025C000136823F00103136000F026FE05462C4B30
:1025D0001B6813F0040FC5D000F01EFE401B02283C
:1025E000F5D90320E5E102F00302012AC7D1244B0B
:1025F0001B6813F4807F03D0E369802B40F0D68101
:102600001F4AD36823F07C53216A43EA0163D360F5
:10261000236813F0080F49D06369002B32D0184AA1
:10262000536F43F00103536700F0F6FD0546144B6A
:102630005B6F13F0020F39D100F0EEFD401B022852
:10264000F5D90320B5E10E4AD36823F07C53216A03
:1026500043EA0163D360DBE7094A136823F0800390
:10266000136000F0D9FD0546054B1B6813F4807F0D
:10267000CED000F0D1FD401B0228F5D9032098E10F
:10268000004402589D4A536F23F00103536700F042
:10269000C3FD0546994B5B6F13F0020F06D000F0A7
:1026A000BBFD401B0228F5D9032082E1236813F00B
:1026B000200F29D0A3699BB1904A136843F480533B
:1026C000136000F0A9FD05468C4B1B6813F4005FF6
:1026D0001AD100F0A1FD401B0228F5D9032068E1C2
:1026E000864A136823F48053136000F095FD054675
:1026F000824B1B6813F4005F06D000F08DFD401B79
:102700000228F5D9032054E1236813F0040F21D1E6
:10271000636A002B00F04C81784A126902F038029B
:10272000182A00F0F380022B75D0744A136823F046
:102730008073136000F070FD0446704B1B6813F04B
:10274000007F00F0D88000F067FD001B0228F4D95C
:1027500003202EE16A4A136843F48073136000F08B
:102760005BFD0546664B1B6813F4807F06D100F0C5
:1027700053FD401B6428F5D903201AE1A368012BFF
:102780000AD00BBB5D4B1A6F22F001021A671A6F59
:1027900022F004021A6704E0584A136F43F0010361
:1027A0001367A36833B300F037FD0546534B1B6F27
:1027B00013F0020FACD100F02FFD401B41F2883323
:1027C0009842F3D90320F4E0052B09D04B4B1A6F44
:1027D00022F001021A671A6F22F004021A67E0E77A
:1027E000464B1A6F42F004021A671A6F42F0010258
:1027F0001A67D6E700F010FD0546404B1B6F13F03B
:10280000020F85D000F008FD401B41F2883398424A
:10281000F3D90320CDE0394A136823F080731360A5
:1028200000F0FAFC0546354B1B6813F0007F06D01C
:1028300000F0F2FC401B0228F5D90320B9E02F4B31
:10284000996A304A0A40A16AE06A41EA00110A43E3
:102850009A62226B013AC2F30802616B01394902A4
:1028600089B20A43A16B0139090401F4FE010A434C
:10287000E16B0139090601F0FE410A431A63DA6A85
:1028800022F00102DA62596B1F4A0A40A16C42EA47
:10289000C1025A63DA6A22F00C02216C0A43DA623E
:1028A000DA6A22F00202616C0A43DA62DA6A42F4FE
:1028B0008032DA62DA6A42F40032DA62DA6A42F4C8
:1028C0008022DA62DA6A42F00102DA621A6842F0C1
:1028D00080721A6000F0A0FC0446084B1B6813F0DD
:1028E000007F06D100F098FC001B0228F5D90320D8
:1028F0005FE000205DE000205BE000BF0044025884
:10290000004802580CFCFFFF0700FFFF30498A6AAD
:10291000086B012B4ED002F00303A16A8B424BD10E
:10292000C2F30512E36A9A4248D1C0F30802236B4E
:10293000013B9A4244D1C0F34622636B013B9A4269
:1029400040D1C0F30642A36B013B9A423CD1C0F395
:102950000660E36B013B984238D11D4B5B6BC3F3C0
:10296000CC03A26C9A4201D1002022E0184AD36A1B
:1029700023F00103D36200F04FFC054600F04CFC4D
:10298000A842FBD0124A516B124B0B40A16C43EA98
:10299000C1035363D36A43F00103D362002008E00C
:1029A00001207047012004E0012002E0012000E046
:1029B000002038BD0120FCE70120FAE70120F8E7FC
:1029C0000120F6E70120F4E70120F2E70120F0E71B
:1029D000004402580700FFFF744B1B6903F03803E3
:1029E000102B00F0DE80182B10D00BB17048704710
:1029F0006E4B1B6813F0200F00F0D5806B4B1868EE
:102A0000C0F3C1006B4B23FA00F0704710B4674A63
:102A1000916A01F00301946AC4F30510D36A03F0CC
:102A2000010C536BC3F3CC030CFB03F307EE903A9A
:102A3000F8EE677A14F47C7F00F09380012965D06A
:102A4000022900F09180E1B107EE100AF8EE476A22
:102A50009FED596A86EE267A544B1B6BC3F308032D
:102A600006EE903AF8EE666A9FED546A67EE867A53
:102A700076EEA77AF7EE006A77EEA67A27EE277A47
:102A800060E0136813F0200F23D011461268C2F3E0
:102A9000C102484BD34007EE103AF8EE476A07EE02
:102AA000100AB8EE476A86EE867A0B6BC3F308030A
:102AB00006EE903AF8EE666A9FED406A67EE867A17
:102AC00076EEA77AF7EE006A77EEA67A27EE277AF7
:102AD00038E007EE100AF8EE476A9FED396A86EE95
:102AE000267A324B1B6BC3F3080306EE903AF8EEDE
:102AF000666A9FED326A67EE867A76EEA77AF7EE1F
:102B0000006A77EEA67A27EE277A1BE007EE100A16
:102B1000F8EE476A9FED286A86EE267A234B1B6BF8
:102B2000C3F3080306EE903AF8EE666A9FED236A57
:102B300067EE867A76EEA77AF7EE006A77EEA67AE7
:102B400027EE277A194B1B6BC3F34623013307EE9D
:102B5000903AF8EE677AC7EE276AFCEEE67A17EE4F
:102B6000900A5DF8044B704707EE100AF8EE476ACA
:102B70009FED146A86EE267A0C4B1B6BC3F3080399
:102B800006EE903AF8EE666A9FED0C6A67EE867A7A
:102B900076EEA77AF7EE006A77EEA67A27EE277A26
:102BA000D0E7094870470348704700BF0044025807
:102BB00000093D000090D0030024744A0000003951
:102BC0000024744C20BCBE4B40787D01002800F0EE
:102BD000328170B50D4604469B4B1B6803F00F0312
:102BE0008B420BD2984A136823F00F030B431360F8
:102BF000136803F00F038B4240F01F81236813F02A
:102C0000040F0CD02269914B9B6903F070039A4228
:102C100005D98E498B6923F070031A438A612368B2
:102C200013F0080F0CD06269884BDB6903F0700366
:102C30009A4205D98549CB6923F070031A43CA61CA
:102C4000236813F0100F0CD0A269804BDB6903F4EA
:102C5000E0639A4205D97D49CB6923F4E0631A43C6
:102C6000CA61236813F0200F0CD0E269774B1B6A0E
:102C700003F070039A4205D974490B6A23F070037C
:102C80001A430A62236813F0020F0CD0E2686F4BFC
:102C90009B6903F00F039A4205D96C498B6923F0B5
:102CA0000F031A438A61236813F0010F41D0674A6A
:102CB000936923F47063A1680B4393616368022BEB
:102CC0000AD0032B27D0012B2CD0604A126812F0B7
:102CD000040F06D10120ADE0126812F4003F00F0AD
:102CE000AE805A490A6922F0070213430B6100F0D3
:102CF00093FA0646554B1B6903F038036268B3EB41
:102D0000C20F16D000F088FA801B41F28833984237
:102D1000F0D903208EE04D4A126812F0007FE0D116
:102D2000012087E0494A126812F4807FD9D101203E
:102D300080E0236813F0020F0CD0E268434B9B69DC
:102D400003F00F039A4205D240498B6923F00F0329
:102D50001A438A613C4B1B6803F00F03AB420AD94C
:102D6000394A136823F00F032B431360136803F0F1
:102D70000F03AB4265D1236813F0040F0CD0226916
:102D8000324B9B6903F070039A4205D22F498B693D
:102D900023F070031A438A61236813F0080F0CD0E4
:102DA00062692A4BDB6903F070039A4205D2274916
:102DB000CB6923F070031A43CA61236813F0100F24
:102DC0000CD0A269214BDB6903F4E0639A4205D27F
:102DD0001E49CB6923F4E0631A43CA61236813F0E8
:102DE000200F0CD0E269194B1B6A03F070039A4262
:102DF00005D216490B6A23F070031A430A62FFF7E3
:102E0000EBFD12498B69C3F30323114AD35C03F032
:102E10001F03D8408B6903F00F03D35C03F01F033B
:102E200020FA03F30B4A13600B4B18600B4B186826
:102E3000FFF73EFA70BD012070470120FAE701203C
:102E4000F8E70120F6E700BF0020005200440258D6
:102E5000447000084C080020480800204408002066
:102E600008B5FFF7B9FD0B4A9369C3F303230A4979
:102E7000CB5C03F01F0320FA03F3926902F00F0208
:102E8000885C00F01F0023FA00F0044A1060044A36
:102E9000136008BD00440258447000084C0800202C
:102EA0004808002008B5FFF7DBFF054BDB69C3F3DB
:102EB0000223044AD35C03F01F03D84008BD00BFBF
:102EC00000440258447000083F230360114B1A6904
:102ED00002F0070242609A6902F4706282609A69A5
:102EE00002F00F02C2609A6902F070020261DA69B0
:102EF00002F070024261DA6902F4E06282611B6AE8
:102F000003F07003C361044B1B6803F00F030B60F5
:102F1000704700BF0044025800200052F0B583B053
:102F200000236BE085685E000324B44025EA0405B5
:102F3000CC68B4402C438460446824EA0C0C4C6890
:102F4000C4F300149C4044EA0C04446068E0DD08CB
:102F5000083550F8256003F007044FEA840C0F246D
:102F600004FA0CF426EA040E0C6904FA0CF444EAA0
:102F70000E0440F825406BE0092400E0002404FA28
:102F80000EF42C430CF1020C664D45F82C404FF02A
:102F9000B0442568D44325EA02064F6817F4801F21
:102FA00001D042EA05064FF0B0452E606D6804EA94
:102FB00005064F6817F4001F01D042EA05064FF0DE
:102FC000B0456E60D5F8845004EA05064F6817F4E2
:102FD000003F01D042EA05064FF0B045C5F88460D5
:102FE000D5F880502C404E6816F4803F01D042EA5C
:102FF00005044FF0B042C2F8804001330A6832FA4B
:1030000003F400F08C804FF0010C0CFA03FC1CEA76
:103010000202F2D04C6804F00304013C012C81D977
:103020004C6804F00304032C0CD0C4685D004FF01E
:10303000030C0CFA05FC24EA0C0C8C68AC4044EA46
:103040000C04C4604C6804F00304022C3FF47FAF0E
:1030500004684FEA430E4FF0030C0CFA0EFC24EA0E
:103060000C0C4C6804F0030404FA0EF444EA0C045B
:1030700004604C6814F4403FBFD02B4CD4F8F4509B
:1030800045F00205C4F8F450D4F8F44004F002040A
:103090000194019C4FEA930C0CF10205214C54F869
:1030A000255003F003044FEA840E0F2404FA0EF4B3
:1030B00025EA04051D4CA0423FF460AF04F580648E
:1030C000A0421ED004F58064A0421CD004F58064A8
:1030D000A0421AD004F58064A04218D004F58064A0
:1030E000A04216D004F58064A04214D004F5806498
:1030F000A04212D004F50064A0423FF43DAF0A2480
:103100003DE701243BE7022439E7032437E70424A1
:1031100035E7052433E7062431E707242FE703B01A
:10312000F0BD00BF000400580044025800000258DF
:103130000AB181617047090481617047436901EAFE
:10314000030221EA030141EA024181617047000064
:10315000134BDB6813F0040F07D1114BDB6803F04E
:10316000070383421AD00120704710B50C4AD36878
:1031700023F007031843D06000F04EF80446084BD4
:103180005B6813F4005F07D100F046F8001BB0F550
:103190007A7FF4D9012000E0002010BD00207047A4
:1031A0000048025810B50320FFF7CAF8FFF714FCD7
:1031B0000F498B69C3F303230E4AD35C03F01F034B
:1031C000D8408B6903F00F03D35C03F01F0320FA90
:1031D00003F3094A1360094B18600F20FFF768F8E2
:1031E00010B10124204610BD0446FFF705F8F9E7A9
:1031F00000440258447000084C0800204808002091
:10320000034B1B78034A11680B441360704700BFDF
:1032100040080020FC080020014B1868704700BFE0
:10322000FC080020F0B4036A23F001030362036A80
:10323000466884691F4A22400D68154323F0020343
:103240008C6823431C4A1D4CA04218BF90420CBFFF
:10325000012200220CD004F58044A04214BF0024B7
:103260000124174FB84203D014B9164CA04205D11F
:1032700023F00803CC68234323F004035AB9124A0D
:10328000904214BF002201220D4CA04203D012B97B
:103290000C4A904207D126F4407C4A6942EA0C0C61
:1032A0008E6946EA0C06466085614A68426303629D
:1032B000F0BC70478CFFFEFF00000140000401409D
:1032C00000400140004801400044014070B4036ADE
:1032D00023F480730362036A4568C4691A4A224072
:1032E0000E68164323F400738A6843EA0223174AE0
:1032F000174CA04218BF90420CBF0122002206D1F9
:1033000023F40063CC6843EA042323F480635AB9AE
:10331000104A904214BF002201220F4CA04203D059
:1033200012B90E4A904207D125F4405C4A694CEA32
:10333000021C8D694CEA05154560C6614A68C26386
:10334000036270BC704700BF8CFFFEFF00000140AD
:103350000004014000440140004001400048014099
:1033600070B4036A23F480530362036A4468C56936
:10337000144A2A400D6842EA052223F400538D685E
:1033800043EA0533104E114DA84218BFB0420DD08C
:1033900005F58045A84214BF0025012506F58046A5
:1033A000B04203D015B90A4DA84204D124F4804498
:1033B0004D6944EA85144460C2614A68026403624C
:1033C00070BC7047FF8CFFFE00000140000401400C
:1033D0000048014070B4036A23F480330362036A37
:1033E0004268456D144C2C400D682C4323F4003387
:1033F0008D6843EA0543114E114DA84218BFB042F3
:103400000DD005F58045A84214BF0025012506F51D
:103410008046B04203D015B90A4DA84204D122F427
:1034200080324D6942EA0522426044654A688265FD
:10343000036270BC704700BF8FFFFEFF00000140B9
:10344000000401400048014070B4036A23F4801373
:103450000362036A4468456D144A2A400D6842EAD3
:10346000052223F400138D6843EA0553104E114DD5
:10347000A84218BFB0420DD005F58045A84214BF40
:103480000025012506F58046B04203D015B90A4D46
:10349000A84204D124F480244D6944EA8524446080
:1034A00042654A68C265036270BC7047FF8FFFFEC9
:1034B00000000140000401400048014010B4036ACC
:1034C000046A24F001040462846924F0F00C4CEADC
:1034D000021223F00A030B43826103625DF8044B7E
:1034E000704710B4046A24F0100404628469036A0B
:1034F00024F4704C4CEA023223F0A00343EA011397
:10350000826103625DF8044B704700008268034BE0
:1035100013400B4343F00703836070478FFFCFFFD7
:1035200090F83D30DBB2012B42D1022380F83D30D0
:103530000268D36843F00103D36003681E4AB3F105
:10354000804F18BF934225D0A2F57C42934221D0F0
:1035500002F5806293421DD002F58062934219D039
:1035600002F57842934215D0A2F56C42934211D0F5
:1035700002F5943293420DD0A2F5C042934209D095
:1035800002F58062934205D01A6842F001021A6087
:10359000002070479968094A0A40062A18BFB2F508
:1035A000803F07D01A6842F001021A60002070477D
:1035B0000120704700207047000001400700010013
:1035C0007047704770477047704710B504460368EE
:1035D0001A6912F0020F11D0DA6812F0020F0DD042
:1035E0006FF002021A610123037703689B6913F0ED
:1035F000030F79D0FFF7E6FF0023237723681A69CA
:1036000012F0040F12D0DA6812F0040F0ED06FF02F
:1036100004021A610223237723689B6913F4407F15
:1036200068D02046FFF7CEFF0023237723681A696E
:1036300012F0080F12D0DA6812F0080F0ED06FF0F7
:1036400008021A61042323772368DB6913F0030F50
:1036500057D02046FFF7B6FF0023237723681A6967
:1036600012F0100F12D0DA6812F0100F0ED06FF0B7
:1036700010021A61082323772368DB6913F4407F63
:1036800046D02046FFF79EFF0023237723681A6960
:1036900012F0010F03D0DA6812F0010F3FD1236856
:1036A0001A6912F0800F03D0DA6812F0800F3DD152
:1036B00023681A6912F4807F03D0DA6812F0800F51
:1036C0003BD123681A6912F0400F03D0DA6812F078
:1036D000400F39D123681A6912F0200F03D0DA683D
:1036E00012F0200F37D110BDFFF76BFF2046FFF718
:1036F0006AFF81E72046FFF764FF2046FFF763FF7C
:1037000092E72046FFF75DFF2046FFF75CFFA3E747
:103710002046FFF756FF2046FFF755FFB4E76FF04E
:1037200001021A61204602F0EDFAB8E76FF080025C
:103730001A61204600F05BFBBAE76FF480721A61F1
:10374000204600F055FBBCE76FF040021A612046AE
:10375000FFF73AFFBEE76FF020021A61204600F043
:1037600045FBC0E730B503683E4A904214BF4FF0B6
:10377000000E4FF0010EB0F1804F14BF72464EF0B4
:103780000102AAB9384CA04214BF00240124374DCD
:10379000A8420DD064B904F1804404F58234A042FB
:1037A00014BF0024012405F50065A84200D01CB117
:1037B00023F070034C68234362BB2B4A904214BF32
:1037C00000220122294CA04224D01ABB02F18042DF
:1037D00002F58232904214BF0022012204F50064F7
:1037E000A04217D0B2B9224A904214BF002201224F
:1037F00004F59A34A0420DD062B91E4A904214BF1B
:103800000022012204F50064A04203D012B91A4A32
:10381000904204D123F4407CCB6843EA0C0323F0AC
:1038200080034A69134303608A68C2620A6882623D
:10383000124A904214BF73464EF0010363B90C4B19
:10384000984214BF0023012302F57052904203D026
:1038500013B90B4B984201D10B69036301234361F8
:1038600030BD00BF000001400008004000040040DF
:103870000044014000E0004000E40040000401403A
:103880000048014060B310B5044690F83D3013B3D2
:10389000022384F83D30214651F8040BFFF762FF04
:1038A000012384F8483084F83E3084F83F3084F8AF
:1038B000403084F8413084F8423084F8433084F852
:1038C000443084F8453084F8463084F8473084F832
:1038D0003D30002010BD80F83C30FEF7A7FCD7E754
:1038E0000120704760B310B5044690F83D3013B323
:1038F000022384F83D30214651F8040BFFF732FFD4
:10390000012384F8483084F83E3084F83F3084F84E
:10391000403084F8413084F8423084F8433084F8F1
:10392000443084F8453084F8463084F8473084F8D1
:103930003D30002010BD80F83C30FFF741FED7E756
:103940000120704770B4036A23F010030362036A16
:10395000456884691A4A22400E6842EA062623F026
:1039600020038A6843EA0213164A174CA04218BF84
:1039700090420CBF0122002206D123F08003CC68C4
:1039800043EA041323F040035AB9104A904214BF8B
:10399000002201220E4CA04203D012B90D4A9042DF
:1039A00007D125F4406C4A694CEA820C8D694CEAD7
:1039B0008505456086614A688263036270BC704712
:1039C000FF8CFFFE00000140000401400044014064
:1039D000004001400048014090F83C30012B36D0B7
:1039E00010B50446012380F83C30142A2AD8DFE8B9
:1039F00002F00B29292910292929152929291A29F1
:103A000029291F29292924000068FFF70BFC002021
:103A100019E00068FFF796FF002014E00068FFF748
:103A200055FC00200FE00068FFF79AFC00200AE038
:103A30000068FFF7CFFC002005E00068FFF704FDF9
:103A4000002000E00120002384F83C3010BD02205B
:103A5000704710B4846824F47F4C42EA03220A437E
:103A600042EA0C0282605DF8044B704790F83C30EB
:103A7000012B00F08F8010B50446012380F83C3004
:103A8000022380F83D3002689068434B0340936006
:103A90000B68702B55D031D8502B6CD00CD9602BC3
:103AA0002AD1CA6849682068FFF71BFD6021206899
:103AB000FFF72CFD002035E0402B0AD1CA68496889
:103AC0002068FFF7FBFC40212068FFF71FFD002066
:103AD00028E05BD8202B07D003D9302B04D001205D
:103AE00020E00BB1102B05D119462068FFF70EFD21
:103AF000002017E0012015E0012013E0B3F5005F7E
:103B00002CD00BD9254A9342EED012D9244A9342A5
:103B1000EAD010329342E7D0012003E0B3F5805F92
:103B200036D10020012384F83D30002384F83C3056
:103B300010BDB3F5801FD7D0B3F1101FD4D0012032
:103B4000F0E7CB684A6889682068FFF782FF22683F
:103B5000936843F0770393600020E3E7CB684A68FB
:103B600089682068FFF775FF2268936843F48043F3
:103B700093600020D6E7CA6849682068FFF79EFC7A
:103B800050212068FFF7C2FC0020CBE70120C9E7E5
:103B90000120C7E7022070478800CEFF20001000F8
:103BA0003000100001F01F01012303FA01FC036A39
:103BB00023EA0C030362036A02FA01F10B43036276
:103BC0007047000010B504460846002956D194F805
:103BD0003E30DBB2013B18BF0123002B40F0A38035
:103BE000002876D1022384F83E3001220146206865
:103BF000FFF7D8FF23684E494E4A934218BF8B42C5
:103C00000BD002F57052934207D002F580629342C6
:103C100003D002F58062934203D15A6C42F4004211
:103C20005A642368424AB3F1804F18BF93426CD064
:103C3000A2F57C42934268D002F58062934264D040
:103C400002F58062934260D002F5784293425CD0E4
:103C5000A2F56C42934258D002F59432934254D06C
:103C6000A2F5C042934250D002F5806293424CD0FC
:103C70001A6842F001021A60002055E004290CD0B5
:103C8000082911D00C2916D010291BD094F84330E4
:103C9000DBB2013B18BF01239FE794F83F30DBB252
:103CA000013B18BF012398E794F84030DBB2013B99
:103CB00018BF012391E794F84130DBB2013B18BFF4
:103CC00001238AE794F84230DBB2013B18BF01239D
:103CD00083E7042809D008280BD00C280DD0102821
:103CE0000FD0022384F843307FE7022384F83F306B
:103CF0007BE7022384F8403077E7022384F84130E1
:103D000073E7022384F842306FE799680A4A0A4051
:103D1000062A18BFB2F5803F07D01A6842F00102A8
:103D20001A60002000E0012010BD0020FCE700BF69
:103D300000000140000401400700010090F83C3001
:103D4000012B4DD070B4012380F83C30022380F861
:103D50003D3003685A689C68224E234DAB4218BF21
:103D6000B34203D122F470024D682A4322F070025C
:103D70000D682A435A6003681A4AB3F1804F18BF8E
:103D800093421FD0A2F57C4293421BD002F5806281
:103D9000934217D002F58062934213D002F5784225
:103DA00093420FD0A2F56C4293420BD002F59432AD
:103DB000934207D0A2F5C042934203D002F580623D
:103DC000934204D124F080048A6814439C60012348
:103DD00080F83D30002380F83C30184670BC7047B6
:103DE0000220704700000140000401407047704706
:103DF00070470000224AD2F8883043F47003C2F8BA
:103E00008830204B1B6803F00F03062B06D81D4A91
:103E1000136823F00F0343F0070313601A4B1A686B
:103E200042F001021A6000221A611968174A0A401A
:103E30001A60144B1B6813F0080F06D0114A136860
:103E400023F00F0343F0070313600F4B00229A6126
:103E5000DA611A620E4999620E49D9620E491963F4
:103E60005A639963DA6319645A64196821F48021EA
:103E700019601A66094B43F2D2021A60704700BFFC
:103E800000ED00E000200052004402587FEDF6EA09
:103E9000000202020000FF01800201010040005206
:103EA00000F1080343604FF0FF328260C36003619A
:103EB00000230360704700230361704743684B6031
:103EC0009A688A60516099600861036801330360F1
:103ED000704730B40D68B5F1FF3F11D000F1080311
:103EE0001C465B681A68AA42FAD963684B609960FD
:103EF0008C606160086103680133036030BC704707
:103F00000469F2E70369416882688A604168516028
:103F10005A68824206D0002202611A68013A1A6089
:103F20001868704782685A60F5E710B5044601F0DA
:103F3000C9FCA26BE36B9A4204D0002401F0E4FCBC
:103F4000204610BD0124F9E710B5044601F0BAFC83
:103F5000A36B23B9012401F0D7FC204610BD002437
:103F6000F9E770B504461546866B026C5AB90368CA
:103F70001BB100200136A66370BD806800F0E2FF2F
:103F80000023A360F6E76DB94068FCF7FBFC226CE8
:103F9000636813446360A268934219D32368636023
:103FA0002846E7E7C068FCF7EDFC226C5142E36865
:103FB0009B1AE3602268934202D2A3680B44E36039
:103FC000022D01D00020D5E726B1013E0020D1E727
:103FD0002846CFE70020CDE70346026C6AB110B552
:103FE0000846D9681144D9609C68A14201D3196878
:103FF000D960D968FCF7C6FC10BD704738B50546D6
:1040000001F060FC95F8454064B201E0013C64B207
:10401000002C0ADD6B6A43B105F1240000F0E8FED4
:104020000028F3D000F078FFF0E7FF2385F8453053
:1040300001F06AFC01F046FC95F8444064B201E0EE
:10404000013C64B2002C0ADD2B6943B105F110007C
:1040500000F0CEFE0028F3D000F05EFFF0E7FF2373
:1040600085F8443001F050FC38BD38B5E0B10D465C
:10407000044601F027FC2368E26B216C01FB02304F
:10408000A0600020A0636360013A02FB0133E3609B
:10409000FF2384F8443084F84530FDB9236963B9BF
:1040A00001F032FC012038BD4FF0500383F311883A
:1040B000BFF36F8FBFF34F8FFEE704F1100000F0E6
:1040C00097FE0028ECD04FF0E0234FF08052C3F869
:1040D000042DBFF34F8FBFF36F8FE1E704F11000A2
:1040E000FFF7DEFE04F12400FFF7DAFED8E738B56B
:1040F0001D46049C0B4649B92460E06323640121FA
:104100002046FFF7B2FF84F84C5038BD2260F4E738
:1041100040B94FF0500383F31188BFF36F8FBFF3A3
:104120004F8FFEE710B584B01C4683B10B1E18BF3D
:104130000123002A08BF43F001038BB94FF050035D
:1041400083F31188BFF36F8FBFF34F8FFEE74FF0FC
:10415000500383F31188BFF36F8FBFF34F8FFEE7D8
:10416000B1FA81F35B09002A18BF43F0010343B998
:104170004FF0500383F31188BFF36F8FBFF34F8F5E
:10418000FEE750230393039B502B08D04FF05003BE
:1041900083F31188BFF36F8FBFF34F8FFEE7039B4D
:1041A000012384F8463000949DF81830FFF79FFFF4
:1041B000204604B010BDF0B585B0019288B10F461D
:1041C0001D460446B1B1022D20D1E36B012B1DD059
:1041D0004FF0500383F31188BFF36F8FBFF34F8FFE
:1041E000FEE74FF0500383F31188BFF36F8FBFF3E7
:1041F0004F8FFEE7036C002BE5D04FF0500383F3A5
:104200001188BFF36F8FBFF34F8FFEE700F08AFE78
:10421000064658B9019B002B48D04FF0500383F35A
:104220001188BFF36F8FBFF34F8FFEE700263DE08D
:104230002A4639462046FFF794FE636A7BB948B1A7
:104240004FF0E0234FF08052C3F8042DBFF34F8F9F
:10425000BFF36F8F01F058FB012005B0F0BD04F1F2
:10426000240000F0C5FD0028F4D04FF0E0234FF00B
:104270008052C3F8042DBFF34F8FBFF36F8FE9E770
:1042800001F042FB0020E8E702A800F0F7FD01265C
:1042900019E0002384F8443021E0002384F84530FD
:1042A00023E02046FFF7AAFE00F082FC01F00AFBA3
:1042B000A26BE36B9A42BBD3022DB9D0019B002BBA
:1042C000DED0002EE0D001F01FFB00F0D7FB01F0A4
:1042D000F9FA94F8442052B2B2F1FF3FD9D094F8E1
:1042E000452052B2B2F1FF3FD7D001F00DFB01A93A
:1042F00002A800F0CFFDD8B92046FFF716FE00282F
:10430000CFD0019904F1100000F03EFD2046FFF7E8
:1043100075FE00F04DFC0028C8D14FF0E0234FF0AF
:104320008052C3F8042DBFF34F8FBFF36F8FBDE7EB
:104330002046FFF763FE00F03BFC00208DE72DE9EF
:10434000F84390B10F4616461C460546B1B1022C03
:1043500020D1EB6B012B1DD04FF0500383F311885C
:10436000BFF36F8FBFF34F8FFEE74FF0500383F320
:104370001188BFF36F8FBFF34F8FFEE7036C002BE5
:10438000E5D04FF0500383F31188BFF36F8FBFF375
:104390004F8FFEE701F0BCFBEFF311894FF05003A4
:1043A00083F31188BFF36F8FBFF34F8FAA6BEB6B53
:1043B0009A4206D3022C04D0002089F31188BDE86C
:1043C000F88395F845804FFA88F8AB6B224639465A
:1043D0002846FFF7C6FDB8F1FF3F06D008F10103FC
:1043E0005BB285F845300120E7E76B6A0BB9012025
:1043F000E3E705F1240000F0FBFC18B126B1012031
:104400003060DAE70120D8E70120D6E7F0B585B0C3
:10441000019290B10F460446C1B100F083FD0646FB
:1044200000BB019B002B5ED04FF0500383F311883B
:10443000BFF36F8FBFF34F8FFEE74FF0500383F34F
:104440001188BFF36F8FBFF34F8FFEE7036C002B14
:10445000E3D04FF0500383F31188BFF36F8FBFF3A6
:104460004F8FFEE700263EE039462046FFF7B4FDB9
:10447000013DA563236923B901F046FA012005B087
:10448000F0BD04F1100000F0B3FC0028F4D04FF0B0
:10449000E0234FF08052C3F8042DBFF34F8FBFF3DA
:1044A0006F8FE9E701F030FA0020E8E702A800F09A
:1044B000E5FC012621E0002384F8443029E00023B4
:1044C00084F845302BE02046FFF798FD00F070FBA4
:1044D00009E02046FFF792FD00F06AFB2046FFF757
:1044E00033FD00283FD101F0EDF9A56B002DBBD1C4
:1044F000019B002BD6D0002ED8D001F005FA00F099
:10450000BDFA01F0DFF994F844305BB2B3F1FF3F3C
:10451000D1D094F845305BB2B3F1FF3FCFD001F07A
:10452000F3F901A902A800F0B5FC0028D1D120467A
:10453000FFF70AFD0028C6D0019904F1240000F01D
:1045400023FC2046FFF75AFD00F032FB0028CAD1B9
:104550004FF0E0234FF08052C3F8042DBFF34F8F8C
:10456000BFF36F8FBFE7002089E700000023072B10
:104570000CD8074A52F833200AB10133F7E7044A4E
:1045800042F8331002EBC30358607047704700BF16
:104590000009002070B504460D46164601F092F958
:1045A00094F844305BB2B3F1FF3F0DD094F845303E
:1045B0005BB2B3F1FF3F0BD001F0A6F9A36B5BB187
:1045C0002046FFF71BFD70BD002384F84430EDE763
:1045D000002384F84530EFE73246294604F12400F1
:1045E00000F0EAFBECE70000084B1B681B6823B9EE
:1045F000074B4FF0FF321A607047044B1B68DB68B3
:10460000DB685A68024B1A60704700BF44090020FB
:10461000EC0D00202DE9F04780460D4617469946DF
:10462000089EDDF824A00A9C9200A521206BFCF7CF
:1046300043FA236B6FF040423A4403EB820727F0C2
:104640000707B5B34FF0000CBCF10F0F0BD815F8EE
:104650000C2004EB0C0383F8342015F80C3013B154
:104660000CF1010CF0E7002384F84330372E00D919
:104670003726E662E66400252565201DFFF71BFC52
:1046800004F11800FFF717FC2461C6F13806A66193
:104690006462656584F858504A464146384601F0E0
:1046A000E5F82060BAF1000F01D0CAF80040BDE87B
:1046B000F087002384F83430D8E7000038B50024B0
:1046C00007E004EB840293000E481844FFF7E8FB70
:1046D0000134372CF5D90C4D2846FFF7E1FB0B4C84
:1046E0002046FFF7DDFB0A48FFF7DAFB0948FFF732
:1046F000D7FB0948FFF7D4FB084B1D60084B1C6033
:1047000038BD00BF4C090020C00D0020D40D002092
:10471000F80D0020240E0020100E00204409002077
:104720004809002010B5044601F0CCF8224A13686D
:1047300001331360214B1B685BB1214B1B686BB9C4
:104740001E4B1B68DA6AE36A9A4207D81B4B1C604F
:1047500004E01A4B1C601368012B29D0194A136816
:10476000013313606364E06A174B1B68984201D9F8
:10477000154B186000EB8000211D144B03EB8000EB
:10478000FFF79CFB01F0C0F80D4B1B687BB10B4B96
:104790001B68DA6AE36A9A4209D24FF0E0234FF0CD
:1047A0008052C3F8042DBFF34F8FBFF36F8F10BD3E
:1047B000FFF784FFD2E700BFAC0D002040090020C6
:1047C0000C0E0020B80D0020BC0D00204C0900206C
:1047D00010B5044690F8593063B1012B11D0022B6B
:1047E0000ED04FF0500383F31188BFF36F8FBFF3E8
:1047F0004F8FFEE7006B00F0BDFF204600F0BAFFD0
:1048000010BD00F0B7FFFBE70F4B1B68D3B110B52D
:1048100001F058F80D4BDB68DC68201DFFF772FBD8
:104820000B4A1368013B1360074A1368013B13608E
:1048300001F06AF82046FFF7CBFF034B1B68002B03
:10484000E6D110BD704700BFB00D0020240E00203F
:10485000AC0D002008B5FFF7D7FF074B1B68012BF5
:10486000F9D94FF0E0234FF08052C3F8042DBFF385
:104870004F8FBFF36F8FEEE74C09002070B50446F1
:104880000D46194B1E68194B18680430FFF73AFBA8
:10489000B4F1FF3F14BF00230123002D08BF002304
:1048A0006BB93444114B1B685C60A6420ED9104BA7
:1048B00018680E4B19680431FFF70BFB70BD0B4BEA
:1048C000196804310B48FFF7F9FAF7E70A4B186843
:1048D000064B19680431FFF7FCFA084B1B68A3422A
:1048E000ECD9064B1C60E9E7380E00204009002097
:1048F00048090020100E002044090020EC0D002083
:1049000030B587B00B9C7CB10C9DB5B15C2504958E
:10491000049D5C2D1AD04FF0500383F31188BFF330
:104920006F8FBFF34F8FFEE74FF0500383F3118873
:10493000BFF36F8FBFF34F8FFEE74FF0500383F34A
:104940001188BFF36F8FBFF34F8FFEE7049D0C9D5F
:104950002C63022485F8594000240394029505AC89
:1049600001940A9C0094FFF755FE0C98FFF7DAFEBD
:10497000059807B030BD2DE9F04385B0074688465D
:1049800014461E46900000F077FE00B381465C207E
:1049900000F072FE0546B0B1C0F83090E5B10023DA
:1049A00085F85930039302950D9B01930C9B00935E
:1049B0003346224641463846FFF72CFE2846FFF78D
:1049C000B1FE012005E0484600F0D4FEE6E74FF0D6
:1049D000FF3005B0BDE8F0834FF0FF30F9E700008D
:1049E00010B588B000240594069407AA06A905A866
:1049F00000F0C6FD059B0293069B0193009423469D
:104A0000079A18491848FFF77BFF184B186040B108
:104A100000F050FB012806D0B0F1FF3F18D008B0DD
:104A200010BD0020F6E74FF0500383F31188BFF369
:104A30006F8FBFF34F8F0E4B4FF0FF321A600D4B4D
:104A400001221A600C4B00221A6000F0D5FFE6E745
:104A50004FF0500383F31188BFF36F8FBFF34F8F75
:104A6000FEE700BF5470000855480008E80D00201C
:104A7000EC0D00200C0E0020380E0020024A1368B6
:104A800001331360704700BFB40D0020014B18685C
:104A9000704700BF380E0020F8B53A4B1B68002B5A
:104AA00069D1394B1D6801351D60C5B9374B1B688D
:104AB0001B6843B14FF0500383F31188BFF36F8F2E
:104AC000BFF34F8FFEE7314A1168314B1868106011
:104AD0001960304A136801331360FFF785FD2E4BD0
:104AE0001B68AB423DD900272C4B1B68DB6A03EBEC
:104AF00083039A002A4B9B58012B00D90127294B8D
:104B00001B68002B3CD001273AE001271F4B1B6894
:104B10001B6843B31D4B1B68DB68DC6863689D4200
:104B200026D3261D3046FFF7EDF9A36A1BB104F129
:104B30001800FFF7E7F9E36A1B4A1268934201D9AC
:104B4000194A136003EB83039A003146144810445A
:104B5000FFF7B4F9E26A114B1B68DB6A9A42D4D2C0
:104B6000D4E70027D2E70C4B4FF0FF321A60BBE7C7
:104B7000094A1360B8E70D4A136801331360002730
:104B80003846F8BDB40D0020380E0020440900203E
:104B900048090020F00D0020EC0D00204009002005
:104BA0004C0900203C0E0020BC0D0020F40D00201C
:104BB00038B5354B1B6843B94FF0500383F3118868
:104BC000BFF36F8FBFF34F8FFEE700F07BFE2E4BDE
:104BD0001A68013A1A601B68002B4FD12B4B1B68D7
:104BE0000BB900244BE00024294B1B681BB3284B56
:104BF000DB68DC6804F11800FFF784F9251D2846FE
:104C0000FFF780F9E06A234B1B68984201D9214BDA
:104C1000186000EB800029461F4B03EB8000FFF774
:104C20004DF9E26A1D4B1B68DB6A9A42DCD31C4BD0
:104C300001221A60D8E70CB1FFF7D6FC194B1C68AB
:104C400084B9174B1C68D4B14FF0E0234FF0805269
:104C5000C3F8042DBFF34F8FBFF36F8F01240EE015
:104C6000013C07D0FFF718FF0028F9D00C4B0122B8
:104C70001A60F5E70B4B00221A60E2E7002400F00F
:104C800043FE204638BD00BFB40D0020AC0D00200F
:104C9000F80D0020BC0D00204C0900204009002028
:104CA0003C0E0020F40D002010B5A8B10446104BB6
:104CB0001B6843B14FF0500383F31188BFF36F8F2C
:104CC000BFF34F8FFEE7FFF7D9FE00212046FFF725
:104CD000D5FDFFF76DFF48B94FF0E0234FF080524C
:104CE000C3F8042DBFF34F8FBFF36F8F10BD00BF0C
:104CF000B40D00201F4B1B681BB11F4B01221A6013
:104D000070471D4B00221A601C4B1B6803EB83018C
:104D10008A001B498A585AB90BB1013BF6E74FF09C
:104D2000500383F31188BFF36F8FBFF34F8FFEE7FC
:104D300003EB830082000A4450684068506003EB34
:104D4000830C4FEA8C020832114488420BD003EBEB
:104D5000830291000A4A0A445268D168094A1160E4
:104D6000064A13607047406862469100044A0A444C
:104D70005060ECE7B40D00203C0E0020BC0D00207C
:104D80004C0900204009002058B110B50C46094AD2
:104D900011681831FFF79DF801212046FFF76EFDDD
:104DA00010BD4FF0500383F31188BFF36F8FBFF333
:104DB0004F8FFEE74009002038B570B10D4614460C
:104DC0000A4A11681831FFF779F80CB14FF0FF3536
:104DD00021462846FFF752FD38BD4FF0500383F3BC
:104DE0001188BFF36F8FBFF34F8FFEE7400900209C
:104DF00038B5C368DC6824B304F118052846FFF70A
:104E000081F8184B1B682BBB251D2846FFF77AF845
:104E1000E06A154B1B68984201D9134B186000EBF0
:104E200080002946114B03EB8000FFF747F8E26A48
:104E30000F4B1B68DB6A9A4211D901200D4B186099
:104E400038BD4FF0500383F31188BFF36F8FBFF36A
:104E50004F8FFEE729460848FFF730F8E7E70020C4
:104E6000EEE700BFB40D0020BC0D00204C0900206F
:104E7000400900203C0E0020F80D0020034B1B6869
:104E80000360034B1B684360704700BFF00D0020B8
:104E9000380E0020F8B5C8B10C460546F9B100F04F
:104EA00011FD1B4B19686B68C81A2268B2F1FF3FED
:104EB00026D0184E36682F68B74201D08B4224D9CD
:104EC000824215D80023236001241AE04FF05003DA
:104ED00083F31188BFF36F8FBFF34F8FFEE74FF05F
:104EE000500383F31188BFF36F8FBFF34F8FFEE73B
:104EF0005B1A134423602846FFF7C0FF002400E03C
:104F0000002400F001FD2046F8BD0124F9E700BFB0
:104F1000380E0020F00D0020014B01221A6070476E
:104F20003C0E0020054B1B6833B1054B1B680BB1D1
:104F30000020704702207047012070470C0E0020AF
:104F4000B40D002000283BD038B504461E4B1B682A
:104F5000834208D04FF0500383F31188BFF36F8F63
:104F6000BFF34F8FFEE7036D43B94FF0500383F358
:104F70001188BFF36F8FBFF34F8FFEE7013B0365CF
:104F8000C16AC26C91421DD00BB1002038BD051D15
:104F90002846FEF7B7FFE06CE062C0F13803A3617A
:104FA0000A4B1B68984201D9084B186000EB80003F
:104FB0002946074B03EB8000FEF780FF0120E5E761
:104FC000002070470020E1E740090020BC0D0020D0
:104FD0004C090020064B1A6813682BB901230360A3
:104FE00023B9D368186870470023F8E7002070479A
:104FF000400E002008B54160006191420CD8D21AE1
:1050000083699A4201D3012008BD011D0B4B18682A
:10501000FEF75FFF0020F7E79A422CBF0022012233
:10502000994238BF00220AB10120EDE7011D044B6F
:105030001868FEF74EFF0020E6E700BF440E002090
:10504000400E002030B583B000F03CFC114B1B68D3
:105050001BB100F059FC03B030BD0F4D2846FEF7E0
:105060001FFF0E4C2046FEF71BFF0D4B1D600D4B26
:105070001C60002300930C4B0C4A10210A20FFF700
:1050800047F8044B18600028E3D00949FFF76EFA8F
:10509000DFE700BF640F0020E80E0020FC0E0020B8
:1050A000400E0020440E0020140F0020480E002067
:1050B0005C70000810B588B0FFF7C4FF124B1B6886
:1050C000CBB100240594069407AA06A905A800F010
:1050D00063FA059B0293069B0193022300932346E8
:1050E000079A0A490A48FFF70BFC0A4B186010B1EF
:1050F000012008B010BD4FF0500383F31188BFF3B7
:105100006F8FBFF34F8FFEE7640F002064700008BD
:105110001D540008680F0020B8B19C46034618488B
:10512000006858B300B585B000910192029305293B
:105130001CDCFFF7F7FE022810D000231A46694650
:105140000F480068FFF737F815E04FF0500383F37E
:105150001188BFF36F8FBFF34F8FFEE70023069ACE
:10516000694607480068FFF726F804E00023624616
:105170006946FFF7E4F805B05DF804FB00207047CE
:10518000640F002070B582B01B4B1B681A6862B3B5
:10519000DB681E68DC68251D2846FEF7B3FE236A1F
:1051A0002046984794F8283013F0040FECD0A369F8
:1051B00033449E4207D26360246129460E4B18682F
:1051C000FEF787FEE0E7002100910B4632462046BD
:1051D000FFF7A2FF0028D7D14FF0500383F31188C7
:1051E000BFF36F8FBFF34F8FFEE7044A1068024989
:1051F0000860136002B070BD400E0020440E002015
:1052000038B50546FFF742FC0446074B1B6883424E
:1052100005D800232B60044B1C60204638BDFFF7E7
:10522000B1FF01232B60F6E7100F002070B582B0AC
:1052300006460D4617490968C968CC68201DFEF767
:1052400061FE94F828C01CF0040F08D12CF0010C6A
:1052500084F828C0236A2046984702B070BDA1692F
:1052600033462A4631442046FFF7C4FE0028F1D0D9
:10527000002100910B4632462046FFF74DFF0028E3
:10528000E8D14FF0500383F31188BFF36F8FBFF362
:105290004F8FFEE7400E002070B582B006460C46E8
:1052A000FFF7ECFB01A8FFF7ABFF019B3BBB0546FB
:1052B000B04228BF002C19D024B1134A12681268DA
:1052C000DAB901242246711B104B1868FFF762F906
:1052D000FFF76EFCA8B94FF0E0234FF08052C3F8FF
:1052E000042DBFF34F8FBFF36F8F0AE0FFF760FC11
:1052F00029463046FFF79AFF03E01C46E2E7FFF736
:1053000057FC02B070BD00BF440E0020640F0020A7
:1053100010B588B002E0049B002B0FDA002204A92C
:105320003D4B1868FFF772F8002873D0049B002BE0
:10533000F1DA07990698059B9847ECE7069C6369A4
:1053400013B1201DFEF7DEFD03A8FFF759FF049BF4
:10535000092BE3D8DFE803F00505053037500505D4
:10536000303794F8283043F0010384F82830059B47
:10537000A169024619442046FFF73CFE0028CDD023
:10538000236A2046984794F8283013F0040FC5D0BC
:10539000A269002100910B46059802442046FFF7C0
:1053A000BBFE0028BAD14FF0500383F31188BFF33E
:1053B0006F8FBFF34F8FFEE794F8283023F001037F
:1053C00084F82830AAE794F8283043F0010384F8E1
:1053D00028300599A16131B10346024601442046B7
:1053E000FFF708FE9AE74FF0500383F31188BFF3ED
:1053F0006F8FBFF34F8FFEE794F8283013F0020F42
:1054000004D023F0010384F8283087E7204600F019
:10541000B1F983E708B010BD640F002000B583B078
:1054200001A8FFF7D7FD0199FFF736FFFFF770FFDF
:10543000F6E708B54FF0E0231B69FFF773FD01287D
:1054400000D108BD00F0AEFAFBE70000EFF30583E2
:105450002BB9064B186828B901221A6070476FF003
:10546000050070474FF0FF30704700BFC8110020A3
:10547000EFF3058373B90A4B1B68012B0DD110B5EF
:105480000024084BDC77064B02221A60FFF7A8FACB
:10549000204610BD6FF0050070474FF0FF30704799
:1054A000C811002000ED00E0F0B587B0002405949D
:1054B000EFF3058474BB68B322B31568936903B92D
:1054C00018235C1E372C49D8546814F0010F47D1BB
:1054D00056696EB14FEA960C94682CB1D7685B2F71
:1054E00002D9176907B1C6B92CB14FF0FF340EE0ED
:1054F0004FF0800CF0E7D4688CB9146994B14FF088
:10550000FF3404E01546002418234FF0800C012CD2
:105510000AD0ACB1059807B0F0BD0124F7E74FF011
:10552000FF34F4E70024F2E71469926802920194D0
:1055300000930B4662462946FFF7E2F90590E9E73A
:1055400005AA019200930B461FFA8CF22946FFF739
:1055500012FA0128DED000230593DBE70020DAE70A
:105560000020D8E708B5EFF3058333B908B9002068
:1055700008BDFFF799FB0020FAE76FF00500F7E799
:10558000034B0360034B0B6080231360704700BF25
:105590006C1100206C0F0020034B0360034B0B6069
:1055A0004FF4807313607047CC150020CC1100209D
:1055B000124A12F0070F1ED0D11D21F00701C1F5CC
:1055C0007A5313440A460E48026000214160134496
:1055D000083B23F007030B48036059601960991AD0
:1055E00051601360084B1960084B1960084B4FF06D
:1055F00000421A6070474FF47A53E4E72C160020FB
:10560000C054002028160020B4540020B0540020BC
:10561000AC540020164B1A461B688342FBD35168DA
:1056200002EB010C844509D0416800EB010C634595
:1056300009D00360904219D010607047406801445F
:1056400051601046F0E710B40A4C2468A3420BD016
:105650005B681944416013681B680360904200D086
:1056600010605DF8044B70470460F7E7704700BFB7
:10567000C05400202816002070B50546FFF7FEF93B
:10568000364B1B68A3B1364B1B681D424ED135B15A
:10569000083515F0070F02D025F007050835002D55
:1056A00046D0304B1B68AB4251D32F4A146804E0FC
:1056B000FFF77EFFE7E722461C466368AB4202D253
:1056C0002368002BF7D1254B1B68A34241D01668F5
:1056D00008362368136063685B1B102B10D96019B0
:1056E00010F0070F08D04FF0500383F31188BFF379
:1056F0006F8FBFF34F8FFEE743606560FFF78AFF50
:10570000626818490B689B1A0B60184909688B423C
:1057100001D216490B60124B1B68134363600023D0
:105720002360134A13680133136002E0002600E08F
:105730000026FFF73DFA16F0070F0CD04FF050038C
:1057400083F31188BFF36F8FBFF34F8FFEE70026FF
:10575000EFE70026EDE7304670BD00BF28160020B9
:10576000AC540020B0540020C0540020B454002099
:10577000B8540020002834D038B50446A0F10805FC
:1057800050F8043C174A1268134208D14FF05003F6
:1057900083F31188BFF36F8FBFF34F8FFEE750F88D
:1057A000081C41B14FF0500383F31188BFF36F8F92
:1057B000BFF34F8FFEE723EA020340F8043CFFF7F4
:1057C0005DF954F8041C084A13680B44136028461A
:1057D000FFF720FF054A136801331360FFF7E8F96C
:1057E00038BD7047AC540020B0540020BC54002099
:1057F00082B0002301930D4B1B68B3F1FF3F08D02B
:105800004FF0500383F31188BFF36F8FBFF34F8FB7
:10581000FEE74FF0500383F31188BFF36F8FBFF3A0
:105820004F8F019B002BFCD002B070475008002026
:1058300008480068006880F308884FF0000080F393
:10584000148862B661B6BFF34F8FBFF36F8F00DF6E
:1058500000BF000008ED00E0DFF80C00016841F433
:10586000700101607047000088ED00E04FF0807328
:1058700040F8043C21F0010140F8081C054B40F8B9
:105880000C3C40F8202C6FF0020340F8243C4438D4
:10589000704700BFF1570008000000000000000042
:1058A000074B19680868B0E8F04F80F30988BFF328
:1058B0006F8F4FF0000080F311887047AFF30080C6
:1058C000400900204FF0500383F31188BFF36F8F1E
:1058D000BFF34F8F0B4A136801331360012B00D0C5
:1058E00070474FF0E023D3F8043D13F0FF0FF7D0DB
:1058F0004FF0500383F31188BFF36F8FBFF34F8FC7
:10590000FEE700BF50080020094B1B6843B94FF069
:10591000500383F31188BFF36F8FBFF34F8FFEE700
:10592000013B034A13600BB983F31188704700BF32
:1059300050080020000000000000000000000000EF
:10594000EFF30980BFF36F8F154B1A681EF0100F2D
:1059500008BF20ED108A20E9F04F10602DE9090002
:105960004FF0500080F31188BFF34F8FBFF36F8F5C
:10597000FFF7C0F94FF0000080F3118809BC1968E7
:105980000868B0E8F04F1EF0100F08BFB0EC108AA6
:1059900080F30988BFF36F8F704700BFAFF30080BB
:1059A0004009002008B54FF0500383F31188BFF37E
:1059B0006F8FBFF34F8FFFF76FF828B14FF0E023E1
:1059C0004FF08052C3F8042D002383F3118808BDE3
:1059D0004FF0E022002313619361054B1B680549DA
:1059E000A1FB03139B09013B53610723136170471C
:1059F00048080020D34D62104FF0E023D3F8002D6B
:105A00003D4B9A421CD04FF0E023D3F8002D3B4B86
:105A10009A421ED030B583B0394B1A78D2B2019277
:105A2000FF221A701B78DBB28DF803309DF803302B
:105A300003F05003334A1370334B07221A601BE004
:105A40004FF0500383F31188BFF36F8FBFF34F8F75
:105A5000FEE74FF0500383F31188BFF36F8FBFF35E
:105A60004F8FFEE7284A1368013B13609DF803300F
:105A70005B00DBB28DF803309DF8033013F0800F2C
:105A8000F0D1214B1B68032B08D04FF0500383F358
:105A90001188BFF36F8FBFF34F8FFEE71B021A4AC7
:105AA000136003F4E0631360019BDBB2144A1370CC
:105AB0004FF0E024D4F8203D43F47003C4F8203DB7
:105AC000D4F8203D43F07043C4F8203DFFF780FF39
:105AD00000250E4B1D60FFF7BFFED4F8343F43F0A6
:105AE0004043C4F8343FFFF7A3FEFFF703F9FFF785
