:020000040800F2
:10000000000002206D610008DD210008DF210008EA
:10001000E1210008E3210008E521000800000000BC
:10002000000000000000000000000000A15A0008CD
:10003000E721000800000000415B0008215500088E
:10004000BD610008BD610008BD610008BD61000818
:10005000BD610008BD610008BD610008BD61000808
:10006000BD610008BD610008BD610008BD610008F8
:10007000BD610008BD610008BD610008BD610008E8
:10008000BD610008BD610008BD610008BD610008D8
:10009000BD610008BD610008BD610008BD610008C8
:1000A000BD610008E9210008BD610008BD610008CC
:1000B000BD610008BD610008BD610008BD610008A8
:1000C000BD610008BD610008BD610008BD61000898
:1000D000BD610008BD610008BD610008BD61000888
:1000E000BD610008BD61000800000000BD6100089E
:1000F000BD610008BD610008BD610008BD61000868
:10010000BD610008BD610008BD610008BD61000857
:10011000BD610008BD610008BD610008BD61000847
:10012000BD610008BD610008BD610008BD61000837
:10013000BD610008BD610008BD610008BD61000827
:1001400000000000000000000000000000000000AF
:10015000BD610008BD610008BD610008BD61000807
:10016000BD610008BD610008BD610008BD610008F7
:10017000BD610008BD610008BD610008BD610008E7
:10018000BD610008BD610008BD610008BD610008D7
:10019000BD610008BD610008BD610008BD610008C7
:1001A000BD610008BD610008BD61000800000000DD
:1001B000BD610008BD610008BD610008BD610008A7
:1001C000BD610008BD6100080000000000000000E3
:1001D0000000000000000000BD61000800000000F9
:1001E000000000000000000000000000000000000F
:1001F0000000000000000000BD610008BD610008B3
:10020000BD610008BD61000800000000BD6100087C
:10021000BD610008BD610008BD610008BD61000846
:10022000BD61000800000000BD6100080000000082
:10023000BD610008BD61000800000000BD6100084C
:10024000BD610008BD610008BD610008BD61000816
:10025000BD610008BD610008BD610008BD61000806
:10026000BD610008BD610008BD610008BD610008F6
:10027000BD610008BD610008BD610008000000000C
:10028000BD610008BD610008BD610008BD610008D6
:1002900000000000BD610008BD610008BD610008EC
:1002A000BD610008BD610008BD610008BD610008B6
:1002B000BD610008BD610008BD610008BD610008A6
:0C02C000BD610008BD610008BD610008C0
:1002E0000348044B834202D0034B03B118477047C5
:1002F0005C0800205C08002000000000054806495A
:100300000B1AD90F01EBA301491002D0034B03B123
:10031000184770475C0800205C08002000000000BF
:1003200010B5064C237843B9FFF7DAFF044B13B13D
:100330000448AFF300800123237010BD5C08002047
:10034000000000004072000808B5044B1BB10449CE
:100350000448AFF30080BDE80840CFE7000000008C
:10036000600800204072000808B5062000F096FCE6
:10037000012001F031FF00BF002301461A46184654
:1003800000F03CBE38B50A4C0A4D641BA4100AD0DC
:1003900004F18043013B05EB8305013C55F804392A
:1003A0009847002CF9D1BDE8384006F04FBF00BF98
:1003B000847700088077000870B50D4E0D4D761BD0
:1003C000B61006D00024013455F8043B9847A642E5
:1003D000F9D1094E094D761B06F032FFB61006D052
:1003E0000024013455F8043B9847A642F9D170BD6A
:1003F0007477000874770008807700087477000825
:10040000024B0146186800F00BB800BF0000002046
:10041000024B0146186800F075BE00BF00000020C6
:100420002DE9F04F01F10B05162D83B0064623D8B8
:10043000102900F2B98000F08FFB1025182302204C
:10044000CD4F3B44A3F108025C68944200F0B980B0
:10045000636823F003032344D4E902515A68E96036
:1004600042F0010230468D605A6000F077FB08349C
:10047000204603B0BDE8F08F35F0070500F1948009
:10048000A94200F2918000F067FBB5F5FC7FC0F057
:100490009D816B0A00F08F80042B00F27381AB0901
:1004A00003F1390003F1380CC300B34F3B44A3F10F
:1004B00008015C68A14206D10CE0002A80F22B8181
:1004C000E468A14206D0636823F003035A1B0F2A95
:1004D000F3DD60463C69DFF8A4C264457CD0636804
:1004E00023F003035A1B0F2A00F37E81002AC7E979
:1004F00004CC80F26F81B3F5007F80F01A81DB08B5
:10050000591C7A6857F83180C4F808804FF0010E02
:100510009B100EFA03F307EBC10E1343AEF1080272
:10052000E2607B6047F83140C8F80C40821001243B
:1005300094409C4256D81C4206D120F0030064002F
:100540001C4200F10400FAD007EBC009CE468046F9
:10055000DEF80C309E4507D120E1002A80F2278189
:10056000DB689E4500F01A81596821F003014A1B9F
:100570000F2AF2DDD3E9028E5C1945F001055D60BA
:1005800042F00105C8F80CE03046CEF80880C7E913
:100590000444C4E902CC65605A50009300F0DEFACE
:1005A000009B03F1080402E00C2333600024204682
:1005B00003B0BDE8F08F4FF4007340204FF03F0CC4
:1005C00073E7DC68A34208BF02307FF441AF3C69A7
:1005D000DFF8A8C1644582D17B6882100124944071
:1005E0009C42A8D9BC68636823F00308A84503D3DC
:1005F000A8EB05030F2B7EDCDFF88491D7F80824E5
:10060000D9F80030013204EB080A2B4400F037819E
:1006100003F580530F3323F47F6B2BF00F0B5946F8
:10062000304600F09DFA411C024600F0F7808245FA
:1006300000F2F280D9F804105944C9F804100B46AE
:1006400000F05381D7F8081401311BBFA2EB0A0A4E
:100650005344C7F80824C9F8043012F0070300F027
:100660001A81C3F108010A44C3F58051934408314B
:10067000A1EB0B01C1F30B0A5146304601930092E6
:1006800000F06EFA421CDDE9002300F05381831A6A
:1006900003EB0A0BD9F80410BA604BF00103514484
:1006A000BC425360C9F8041000F02B81B8F10F0F61
:1006B00040F229816368A8F10C0020F0070003F0E4
:1006C000010304EB000C03434FF0050E0F28636099
:1006D000CCE901EE00F2358153681446D9F82C209C
:1006E0008A42D9F8302038BFC9F82C108A4238BF66
:1006F000C9F8301094E0621943F0010345F0010598
:1007000065603046BA60536000F028FA083420462D
:1007100003B0BDE8F08F2344E1685A68A56842F051
:100720000102E96030468D605A6000F017FA083423
:100730003DE75A0A042A69D9142A00F2BE8002F160
:100740005C01C9005B3207EB010E7958AEF1080E6F
:100750008E4500F097804A6822F003029A4202D93F
:1007600089688E45F7D1D1F80CE07B68C4E9021E98
:10077000CEF80840CC60D9E63004002038040020D0
:1007800078080020142B59D9542B00F29E802B0B93
:1007900003F16F0003F16E0CC30086E608F1010857
:1007A00018F0030F0EF1080E7FF4D2AE51E0194499
:1007B0001C464A68DB6854F8085F42F001024A6050
:1007C0003046EB609D6000F0C9F9F0E6E80805F1FD
:1007D000080335E6234430465A6842F001025A6065
:1007E000083400F0BBF9E2E6611945F0010E42F071
:1007F0000105C4F804E03046C7E90411C1E902CCA0
:100800004D60E25000F0AAF90834D0E69A0902F1EE
:100810003901C900383296E7BC4260D0BC686368D1
:1008200023F0030BAB45ABEB050302D30F2B3FF7D4
:1008300062AF304600F092F90024B8E603F15C00A4
:1008400003F15B0CC30030E659F808394B4540F022
:10085000968010F0030F00F1FF30F5D17B6823EA9A
:1008600004037B6064009C423FF6BCAE1CB9B9E651
:10087000640008F104081C42FAD0404664E603F123
:10088000100BCCE67B6892104FF0010808FA02F2D8
:1008900013437B606AE702EB0B014942C1F30B0A89
:1008A000514630460193009200F05AF9431CDDE9AD
:1008B00000237FF4ECAE9A46ECE6542A26D81A0BB5
:1008C00002F16F01C9006E323DE7B3F5AA7F26D869
:1008D000EB0B03F1780003F1770CC300E5E5D9F8E1
:1008E00004305B44C9F80430ACE6CAF30B000028BE
:1008F0007FF4A8AE08EB0B03BC6843F00103636010
:10090000ECE61446EAE60123536092E7B2F5AA7FCB
:1009100021D8DA0B02F17801C900773213E740F2EF
:100920005452934221D8AB0C03F17D0003F17C0CAF
:10093000C300BAE5083B9B44ABEB020B4FF0000A47
:10094000A8E604F10801304600F0DCFBBC68D9F8E9
:1009500004106368C2E640F254518A420BD89A0CE4
:1009600002F17D01C9007C32EDE64FF47E737F20F9
:100970004FF07E0C99E54FF47E717E22E3E67B68B2
:1009800070E700BF844641EA000313F003036DD112
:10099000403A41D351F8043B40F8043B51F8043B42
:1009A00040F8043B51F8043B40F8043B51F8043B49
:1009B00040F8043B51F8043B40F8043B51F8043B39
:1009C00040F8043B51F8043B40F8043B51F8043B29
:1009D00040F8043B51F8043B40F8043B51F8043B19
:1009E00040F8043B51F8043B40F8043B51F8043B09
:1009F00040F8043B51F8043B40F8043B51F8043BF9
:100A000040F8043B51F8043B40F8043B51F8043BE8
:100A100040F8043B403ABDD2303211D351F8043B88
:100A200040F8043B51F8043B40F8043B51F8043BC8
:100A300040F8043B51F8043B40F8043B103AEDD237
:100A40000C3205D351F8043B40F8043B043AF9D288
:100A5000043208D0D2071CBF11F8013B00F8013B5B
:100A600001D30B8803806046704700BF082A13D368
:100A70008B078DD010F003038AD0C3F10403D21A80
:100A8000DB071CBF11F8013B00F8013B80D331F8B4
:100A9000023B20F8023B7BE7043AD9D3013A11F834
:100AA000013B00F8013BF9D20B7803704B7843709F
:100AB0008B78837060467047F0B4860746D0541E2A
:100AC000002A3CD0CAB2034602E014F1FF3436D308
:100AD00003F8012B9D07F8D1032C29D9CDB245EAA3
:100AE00005250F2C45EA054533D9A4F11006360932
:100AF00003F1200707EB061703F1100242E9045542
:100B000042E902551032BA42F8D1721C14F00C0FAF
:100B100003EB021204F00F0613D0331F23F003037C
:100B20000433134442F8045B9342FBD106F0030400
:100B30002CB1C9B21C4403F8011B9C42FBD1F0BC90
:100B4000704734461346002CF3D1F8E714460346A9
:100B5000C2E71A462646E0E7704700BF704700BF6D
:100B600038B5074C002305460846236001F026FBF4
:100B7000431C00D038BD2368002BFBD02B6038BD50
:100B80004855002010B580210446FFF749FCC4F801
:100B9000DC0240B1031F00227C3043F8042F834263
:100BA000FBD1002010BD4FF0FF3010BDD0F8DC327B
:100BB0000BB100207047E5E71F2970B5054609D83D
:100BC000D0F8DC3216460C464BB153F8240043F8FB
:100BD000246070BD162202604FF0FF3070BDFFF739
:100BE000D1FF10B9D5F8DC32EFE74FF0FF3070BD20
:100BF0001F2938B522D8D0F8DC2205460C466AB148
:100C000052F8213053B1012B16D0591C10D00025B9
:100C1000204642F824509847284638BD284600F020
:100C200073F8224601462846BDE8384000F058B81F
:100C300016230360012038BD002038BD1623036051
:100C40004FF0FF3038BD00BF1F2923D838B5D0F88A
:100C5000DC3205460C4683B153F8242003EB8403B1
:100C60004AB1511C11D0012A0DD0002520461D602B
:100C70009047284638BD012038BDFFF783FF30B9C3
:100C8000D5F8DC32E8E7032038BD022038BD4FF04C
:100C9000FF3038BD4FF0FF30704700BF024B0146B8
:100CA0001868FFF7A5BF00BF00000020024B0A46EE
:100CB00001461868FFF780BF00000020034B18684A
:100CC000D0F8DC320BB1002070475BE70000002059
:100CD000024B01461868FFF7B7BF00BF00000020B5
:100CE00038B50B46074C05461146184600232360CD
:100CF00001F05CFA431C00D038BD2368002BFBD008
:100D00002B6038BD4855002001F048BA00000000B3
:100D100000000000000000000000000000000000D3
:100D2000A2EB0300704700BF02780B78012A28BFAE
:100D30009A42F5D16DE9044540EA0104CDE9026724
:100D40006FF0000C4FEA447212B380EA010414F011
:100D5000070F6AD100F0070420F0070004F0030534
:100D600021F007014FEAC505F0E8042314F0040F51
:100D7000F1E804670CFA05F462EA040266EA040684
:100D80000AD063EA0403624667EA0407664603E0A2
:100D9000F0E80423F1E8046782FA4CF582EA0604DD
:100DA000A4FA8CF46CBB83FA4CF583EA0705A5FA28
:100DB0008CF595B950E9022351E9026782FA4CF5A6
:100DC00082EA0604A4FA8CF483FA4CF583EA070558
:100DD000A5FA8CF52543DBD09CB92DBAB5FA85F47C
:100DE00024F0070427FA04F1DDE9026723FA04F38B
:100DF00003F0FF0001F0FF01FDE80445A0EB010056
:100E0000704724BAB4FA84F424F0070426FA04F1F3
:100E1000DDE9026722FA04F202F0FF0001F0FF01AF
:100E2000FDE80445A0EB0100704714F0030F3CD12E
:100E300010F0030428D150F8082B51F8083B82FA2F
:100E40004CF582EA0305A5FA8CF55DB950F8042C3F
:100E500051F8043C82FA4CF582EA0305A5FA8CF5B8
:100E6000002DE8D02DBAB5FA85F424F0070423FA52
:100E700004F122FA04F202F0FF0001F0FF01FDE8A4
:100E80000445A0EB010070474FEAC40420F00300C2
:100E900050F8082B21F0030151F8083B0CFA04F438
:100EA00062EA040263EA0403C9E710F003041AD0FB
:100EB000A1EB040120F00300E40750F8042B06D056
:100EC0000FD28B785FFAA2F4E41A06D12BB1CB785B
:100ED0005FFAB2F4E41A00D11BB920465DF8104B5A
:100EE000704701F1040150F8042BCC0721F00301F5
:100EF00051F8043B48D824D222F07F4482FA4CF5C2
:100F000094EA1325A5FA8CF50AD165B951F8043B8A
:100F100084EA0204B4EB036F0ED150F8042BEBE724
:100F20004FEA132355E035F07F454DD10878FDE8B1
:100F30000445C0F1000070474FEA126203F0FF035E
:100F400047E002EA1C4482FA4CF594EA1345A5FAFC
:100F50008CF50AD165B951F8043B84EA0204B4EB7C
:100F6000034F0CD150F8042BEBE74FEA134330E06A
:100F700015EA1C4528D10B884FEA124229E04FEAB6
:100F8000124203EA1C4324E002F0FF0482FA4CF50B
:100F900094EA1365A5FA8CF50AD165B951F8043BBA
:100FA00084EA0204B4EB032F09D150F8042BEBE7D9
:100FB0004FEA13630DE015F0FF0F05D10B684FEA00
:100FC000122223F07F4304E04FF00000FDE80445C7
:100FD000704712BA1BBA82FA4CF482EA0304A4FAEC
:100FE0008CF5B5FA85F402FA04F203FA04F34FEA39
:100FF0001260FDE80445A0EB13607047F0B4184C94
:101000002568D5F8484114B365681F2D24DC38B92C
:10101000AB1C0135656044F823100020F0BC70471C
:1010200004EB85060127C6F8882007FA05F2D4F8F4
:101030008871022847EA0207C4F88871C6F80831A7
:10104000E6D1D4F88C311A43C4F88C21E0E705F5D9
:10105000A674C5F84841D7E74FF0FF30DEE700BF80
:1010600058720008F8B5244F0C460646FFF774FD89
:10107000BB685D68C4F57E610F3125F00305294426
:1010800021F47F6121F00F01A1F58054B4F5805F58
:1010900007DB00213046FFF763FDBB682B44984215
:1010A00004D03046FFF75AFD0020F8BD61423046BB
:1010B000FFF756FD01300DD0104BBA6819682D1B93
:1010C00045F001053046091B55601960FFF746FDE4
:1010D0000120F8BD00213046FFF742FDBA68831AAF
:1010E0000F2BDEDD064C0549246843F00103001B8D
:1010F00053600860D5E700BF300400207C08002062
:101100003808002000295ED0F8B50F460646FFF7E4
:1011100023FD57F804CC754D2CF00103A7F108000E
:10112000C218A9685468914224F0030400F0848036
:101130001CF0010F546002EB040133D157F808ECA6
:101140004968A0EB0E0005F1080C876867457344F9
:1011500001F0010160D0D0F80CE0C7F80CE0CEF847
:101160000870002900F08D8043F001014160136098
:10117000B3F5007F30D2DB08591C6C689A1001234C
:101180009340234305EBC10255F831406B60083AA8
:10119000C0E9024245F83100E0603046BDE8F84061
:1011A000FFF7DCBC4968C9070ED4234405F1080CDD
:1011B0009168614543F001046BD0D268CA609160C8
:1011C0004460C350D4E7704743F00101B3F5007F9A
:1011D00047F8041C1360CED35A0A042A46D89A0949
:1011E00002F13907FF0002F13801EC19EA59083C15
:1011F000944255D0516821F00301994202D9926876
:101200009442F7D1D468C0E90224A060D06030468F
:10121000BDE8F840FFF7A2BC002962D1D2E9022163
:10122000234443F00104D1608A604460C3503046D7
:10123000BDE8F840FFF792BC1CF0010F234407D132
:1012400057F8082C801A1344D0E90212CA60916042
:10125000274A126843F001019A424160A8609CD875
:10126000244B30461968FFF7FDFE96E7142A0AD989
:10127000542A1DD81A0B02F16F07FF0002F16E010C
:10128000B3E7234494E702F15C07FF0002F15B013E
:10129000ABE7C5E90400C0E902CC4460C3507CE779
:1012A0006B688910012707FA01F119436960AAE701
:1012B000B2F5AA7F06D8DA0B02F17807FF0002F137
:1012C000770192E740F254518A4206D89A0C02F113
:1012D0007D07FF0002F17C0187E74FF47E777E21D6
:1012E00083E743F001014160136056E730040020BA
:1012F0003C0800207808002003685A004CBF43F0E7
:10130000004323F000431844704700BF2DE9F84321
:1013100029B34F1E044615463E464FF0000808EB21
:10132000060101EBD171491004EBC1094846FFF7F2
:10133000E3FF0346C80008308F42204409D0AB4287
:1013400009D8FFF7D9FF0138A8420AD201F10108F4
:10135000E5E7AB4205D9884501D04E1EDFE74FF0E7
:1013600000094846BDE8F883012807D0022807D0C5
:10137000044B00280CBF18460020704702487047F5
:10138000024870472D1A0008311A0008351A000863
:1013900030B5234B83B004468D1E3BB301A92846CC
:1013A000AFF30080E8B101992A46FFF7AFFF01468D
:1013B000B8B1FFF7A1FF4B68A064012B2BD0002B25
:1013C00001F1040023DBFFF797FF0023C4E91303B7
:1013D0000368002B10DBFFF78FFF2061002003B0B4
:1013E00030BD00230920236103B030BD0D490E48F4
:1013F000091AC9100191D7E7C3F30360FFF7B4FFDF
:101400000028206114BF0020092003B030BD012353
:10141000C4E91303DCE7002323610520DFE700BFF5
:101420000000000074770008947500080368DA076C
:1014300010B5044606D49B0700F1480009D500F01A
:101440004BFC2368590709D51A070ED5DB0613D5BF
:1014500010BD00F039FC23685907F5D404F1D00021
:1014600000F042FC23681A07F0D404F5A87000F0DD
:1014700043FC2368DB06EBD404F5E870BDE81040BC
:1014800000F07EBC0346006800B11844704700BFFE
:1014900009207047704700BF70B504460E46316C96
:1014A0002046FFF775FF054688B9336C6361324605
:1014B00023692146012098470828F0D0072806D143
:1014C0002846316CFFF7E6FF301D00F0F1FBFEF718
:1014D0004BFF00BF2DE9F0470D1D064614460FCD0A
:1014E000ADF5727D0DF10C0CACE80F000FCDACE842
:1014F0000F000FCDACE80F0095E80F0002ADF768C4
:10150000D6F818808CE80F0000232B6021E02B6CAC
:1015100073614FF4F07229467AA8FFF733FA336902
:101520007AAA314650469847889BCDE90058214613
:101530006B648146334632460120B8470446E8B919
:101540004FF4F0727AA92846FFF71CFAB9F1080F98
:101550001BD1296C3046FFF71BFF09345FFA84FA70
:1015600081460028D3D0AB6B4AF01001CDE900587A
:1015700032466B6401203346B84708B14FF0090981
:1015800048460DF5727DBDE8F087B9F1070FF5D13A
:101590002046296CFFF77EFF03A800F089FB00BFFF
:1015A000406C7047F0B5CB6B0B640E1D0F460546C3
:1015B0000FCEF9B001AC0FC40FCE0FC40FCE0FC4C5
:1015C00096E80F004FF0FF3684E80F00009606E023
:1015D0002B696A46294698470828044608D110997D
:1015E0002846FFF7D5FE0028F2D0092079B0F0BDDB
:1015F0006846FFF71BFF062CF7D139462846FFF750
:101600004BFF00BF30B4DD6BC160826119461D64C1
:10161000002230BC5EE700BF70B5C66843690B644A
:10162000AEB903690A4604460D46014602209847B2
:10163000072805D008280FD129462046FFF72CFFA0
:101640003046296CFFF726FF281D00F031FB0122F0
:10165000FFF740FFFEF788FEFEF786FEC2681AB16C
:10166000CA6B0A64002235E79CE700BF704700BFE1
:10167000836801460BB1012018477047012912D039
:1016800009D873B90F2A0CD800EB820218465368A8
:10169000009A136070470339012994BF012002208A
:1016A0007047022070470846704700BF10B584B0ED
:1016B000002303AC0A4600941946FFF7DFFF0398A6
:1016C00004B010BD012912D009D873B90F2A0CD863
:1016D00000EB8200009A1268426018467047033996
:1016E000012994BF0120022070470220704708465C
:1016F000704700BF10B584B0002303AC0392009480
:101700000A461946FFF7DEFF04B010BDF0B5D36BF3
:101710001364151D8C4606460FCDADF50F7D17AC35
:101720000FC40FCD0FC40FCD0FC495E80F004FF0BD
:10173000FF3784E80F006546169710E0FFF7DAFFE1
:10174000294616A8B047034616AA6946082083B959
:10175000049B9847052804460CD0092809D02699EF
:101760006846FFF715FE03466A460C2116A8002BB3
:10177000E4D0092416A8FFF759FE20460DF50F7D89
:10178000F0BD00BF2DE9F04FCC6C89B00D4654F888
:10179000041B0694174600F003081E46002B79D060
:1017A0000B0CDAB209048DF81D30022304EB82041D
:1017B00005918DF81C302B6DB8F1020F08BFAC6B92
:1017C00013F001030CD0384605A900F073FB18B9DB
:1017D000082009B0BDE8F08F092009B0BDE8F08FFE
:1017E000D4F800A0BAF1000FEDD0019300F0080387
:1017F0000293022E4AD0B4F800A0B4F80290043448
:10180000AA6C29F0010B0F2138469344FFF74EFFD5
:10181000834539D82AF001025A44824294BF0020FD
:1018200001204FEA490303F002030AF0010A43EAE8
:101830000A03012B49D0022B32D0002BCCD1B8F1B6
:10184000000F02D0002840F0CD800434D4F800A06E
:10185000BAF1000FCDD105A9384600F02BFB0028C6
:10186000BAD1019B002BB3D00F213846FFF71EFFE2
:101870000E2102463846FFF73DFF38466A4A0F21DF
:10188000FFF738FF0720A8E70020CAE7D4F8049044
:101890000834B5E7090203230591ADF81C308AE747
:1018A000236823F0004BB8F1000F45D128B1029A0C
:1018B000002A5CD0BBF1000F74D0002B00DA043496
:1018C0000BF1010B04EB8B04C0E7B8F1000F19D149
:1018D000B0B1D4E90023991C4FEAD2723FF47CAF37
:1018E00005F158010133049100F09080201DFFF7AD
:1018F000C9FD04AB0146284604F06AFC00285BD110
:101900000834A3E70D213846D5F82090FFF7CEFE26
:101910008145F5D1AB6A9C42F2D12046FFF7ECFC41
:101920000F2102463846FFF7E5FE38462A460021D9
:10193000FFF7E0FE072050E70D213846D5F820904C
:10194000FFF7B4FE814501D02368B6E7AB6A9C423D
:10195000FAD104220021C5E90B12A318C5F828B05A
:101960006B6323688B4259DB01230193A8E705F1E0
:101970005803CDF80C8004F1040AB04691461E4687
:101980000DE00496FFF77EFD04AB014600222846D9
:1019900004F01EFC09F101090AF1040AE8B9D9456D
:1019A0005046EED138460D21FFF780FE049B286299
:1019B000C5E90934062010E781460D213846FFF7B6
:1019C00075FEB9F1020F286225D12B46049A43F81F
:1019D0002C2F6B62AC620620FFE646462368DDF8DA
:1019E0000C806AE72046FFF787FC04340246AC63AC
:1019F0002846144604F04CFC00283FF4EDAE38466F
:101A000022460F21FFF776FE0720E6E638460D2135
:101A1000FFF74CFE2862049B6B62DBE70BF10100D1
:101A200004EB80007AE700BFD16E00080023A9E62E
:101A30000123A7E60223A5E62DE9F0430646C3B03D
:101A400015461C46042900F2B980DFE801F09A53DC
:101A5000B7290300002C40F0B180102A00F2AE80BC
:101A60000368D80600F1F38020AF384600F092F901
:101A7000B06B0023012404FA03F22A42014604D089
:101A800051F8042B47F8232008460133042BF2D1E8
:101A9000B063384600F074F9002043B0BDE8F0832D
:101AA000032C40F08B8094B204EB1243102B4FEACE
:101AB000124500F2838003681F0700F1D08020AF39
:101AC000384600F03BF907EBC501B56B54B10B4646
:101AD000E81A01EBC401E4001A5843F8042B8B42C6
:101AE000FAD125443846B56300F006F9002043B02A
:101AF000BDE8F083012C4FEA124895B25AD0052C6C
:101B00005CD108EB0509B9F1200F57D8B8F10F0FD8
:101B100077D9A946002D40F08880B36B6DB320AF14
:101B20004FF0000907EBC807043F03EBC50553F866
:101B3000041B47F8041FAB42F9D1B9F1000F0FD0D5
:101B40006F464146102938BF102107EBC101843987
:101B500003EBC90553F8040B41F8040FAB42F9D16C
:101B6000012C00F08480B8F10F0FB56345D9B9F1AD
:101B7000000F02D0684600F0B7F8002043B0BDE87F
:101B8000F083DCB9876B2346012094B206F1040C84
:101B900000FA03F22242394604D051F8042B4CF8E3
:101BA00023200F460133102BF2D115F40050E4D15D
:101BB000B76304E008EB0503102B03D9022043B000
:101BC000BDE8F083B8F10F0FF8D83368DA0706D50F
:101BD000304623F0030340F8483B00F079F820AF8B
:101BE000384600F075F8B36B002D99D11D460435C9
:101BF000B563384600F068F8BFE720A800F06CF83D
:101C0000B5E7B9F1100F40D9A9F110093368D90728
:101C100008D523F00103304643F0020340F8483B67
:101C200000F05EF8B9F1000F32D033685A0720D4C3
:101C3000B8F10F0F25D96F463846C8F1100500F0EE
:101C400057F8002DB36B7FF77CAF20AF6AE723F026
:101C50001003336006F5E87000F09CF804E723F009
:101C60000803036000F5A87000F068F827E720AFCC
:101C7000BDE7304623F0040340F8D03B00F038F8CD
:101C8000D6E720A800F02CF8D5E74FF00009BDE713
:101C9000B8F10F0F3FF641AF20AF384600F020F803
:101CA000B36B002D7FF43CAF384600F015F864E7C5
:101CB00000F1340191E838009C46A6464CF8045DDA
:101CC00090E8FF0FE54600BD90EC210B704700BF88
:101CD00080EC210B704700BF90EC200B704700BFD9
:101CE00080EC200B704700BFD0EC200B704700BF8A
:101CF000C0EC200B704700BFF0EC0201F0EC0211C9
:101D0000F0EC0221F0EC0231F0EC0241F0EC025177
:101D1000F0EC0261F0EC0271F0EC0281F0EC029167
:101D2000F0EC02A1F0EC02B1F0EC02C1F0EC02D157
:101D3000F0EC02E1F0EC02F1704700BFE0EC0201D0
:101D4000E0EC0211E0EC0221E0EC0231E0EC0241B7
:101D5000E0EC0251E0EC0261E0EC0271E0EC0281A7
:101D6000E0EC0291E0EC02A1E0EC02B1E0EC02C197
:101D7000E0EC02D1E0EC02E1E0EC02F1704700BFE0
:101D8000B0FC0181B0FC0191B0FC01A1B0FC01B13B
:101D9000704700BFA0FC0181A0FC0191A0FC01A143
:101DA000A0FC01B1704700BFEC4600B52DE9005022
:101DB0002DE9FF1F4FF000032DE90C0001A9FFF7EB
:101DC000F1FBDDF840E012B0704700BFEC4600B513
:101DD0002DE900502DE9FF1F4FF000032DE90C0005
:101DE00001A9FFF719FCDDF840E012B0704700BF11
:101DF000EC4600B52DE900502DE9FF1F4FF0000320
:101E00002DE90C0001A9FFF729FCDDF840E012B034
:101E1000704700BFEC4600B52DE900502DE9FF1FCB
:101E20004FF000032DE90C0001ABFFF7EBFBDDF8F1
:101E300040E012B0704700BFEC4600B52DE90050FD
:101E40002DE9FF1F4FF000032DE90C0001AAFFF759
:101E50005DFCDDF840E012B0704700BF027A7AB94D
:101E6000437AA3B14268013B10B443721368032163
:101E7000141D01721A024460026010BC180E7047F3
:101E80000368013A02721A020260180E7047B0200D
:101E9000704700BF00B585B003AA00230092194621
:101EA0000C22FFF7EBFB039805B05DF804FB00BFC5
:101EB000F0E700BF2DE9F043054685B00E464FF030
:101EC00000083046FFF7CAFFB028044600F0B28091
:101ED000070620D500F0F003802B4DD0902B36D094
:101EE000A02B60D0B02B74D0C02B00F08B8000F002
:101EF000F803D02B0BD100F00702013242F400228C
:101F0000052301212846FFF797FD0028D9D0092095
:101F100005B0BDE8F0830DF10C09002319468700D8
:101F2000CDF800900D222846FFF7A8FBFFB2039BD7
:101F3000CDF80090043760064CBFDF1BFF1800236C
:101F400019460D2228460397FFF7BCFBB9E700F0BE
:101F50000D030D2BDBD003AF002300F00F02194659
:101F600000972846FFF78AFB0023009719460D22A9
:101F70002846FFF7A7FBA4E73046FFF76FFF2402D0
:101F80002043B0F5004FC2D004010023A2B219468D
:101F90002846FFF751FD0028B9D114F4004F18BFAF
:101FA0004FF001088DE7C24302F007034FF47F6250
:101FB0001A41010702F47F624FF0000348BF42F468
:101FC000804219462846FFF737FD00283FF479AFD5
:101FD0009DE7B12833D0B22800F08B80B32839D0E8
:101FE00000F0FC03B42B92D000F007020132012371
:101FF00042F4002219462846FFF71EFD00283FF450
:1020000060AF84E7C62842D0C7284CD000F0F80360
:10201000C02B5BD0C82860D0C9287FF478AF304689
:10202000FFF71CFF020300F00F0002F470220130E2
:10203000024365E7B8F1000F18D0002068E730468A
:10204000FFF70CFF024600283FF461AF10F0F003E9
:10205000D0D05CE73046FFF701FF010300F00F002E
:1020600001F47021421C01230A43C3E703AC434639
:102070000E22414600942846FFF700FB00942846B4
:1020800043460F224146FFF71DFB404640E73046DE
:10209000FFF7E4FE010300F00F0001F47021421C81
:1020A00003230A43A6E73046FFF7D8FE024600287E
:1020B0003FF42DAF10F0F0037FF429AF0421284640
:1020C000FFF7BAFC00283FF4FCAE20E700F00F0257
:1020D0000132032342F420228CE73046FFF7BEFE94
:1020E00000F0F00200F00F031032013343EA023235
:1020F00006E700230DF10C090D221946CDF80090DA
:102100002846FFF7BBFA3046FFF7A8FE02064FF05D
:1021100002070CD5039B00F07F00B8400344304613
:102120000393FFF79BFE030607F10707F2D4039B17
:10213000CDF8009000F07F0403F50172BC4000234D
:10214000144419460D2228460394FFF7BBFAB8E65B
:1021500010B5C26C84B0536803248DF80C401B0288
:1021600002F108040846D279019301A902948DF87E
:102170000D20FFF79FFE04B010BD00BF08B5FFF7AC
:1021800097FE806C08BD00BF08B5FFF791FEC06CDC
:10219000C379023300EB830008BD00BF024B582215
:1021A0001A604FF0FF30704748550020024B58220C
:1021B0001A604FF0FF30704748550020044A054927
:1021C0001368002B08BF0B46184410601846704770
:1021D000AC08002050550020FEE700BFFEE7FEE7F8
:1021E000FEE7FEE7FEE7704708B5024801F0CFF9C9
:1021F00008BD00BFB854002000B583B00A4BD3F827
:10220000F42042F00202C3F8F420D3F8F43003F0D3
:1022100002030193019B00220F216FF0010000F0E7
:10222000A5F803B05DF804FB004402580368B3F15D
:10223000804F00D0704782B0074BD3F8E82042F0BF
:102240000102C3F8E820D3F8E83003F0010301935A
:10225000019B02B0704700BF0044025800B587B030
:102260000023019302930393049305930368B3F14E
:10227000804F02D007B05DF804FB0D4BD3F8E0208F
:1022800042F00102C3F8E020D3F8E03003F001038C
:102290000093009B012301930222029200220392E9
:1022A0000492059301A9034800F038FEE2E700BF5D
:1022B00000440258000002580F2801D9012070473D
:1022C00010B58AB0044600220146192000F04EF8ED
:1022D000192000F07DF8174B1C60174BD3F8F02045
:1022E00042F00102C3F8F020D3F8F03003F001030C
:1022F0000093009B01A902A800F0E6FD00F0D2FDCA
:1023000043000E48A0FB03239B0C013B0C480D4AE5
:10231000026040F2E732C2604360002303618360E1
:1023200001F090FA10B101200AB010BD044801F08C
:10233000D9F8F9E7440800200044025883DE1B4323
:10234000B8540020000001400649CB6823F4E06344
:102350001B041B0C000200F4E0600343024A1A4312
:10236000CA60704700ED00E00000FA0530B4154B7C
:10237000DB68C3F30223C3F10704042C28BF042441
:102380001D1D062D14D9033B4FF0FF3505FA04F44B
:1023900021EA0401994005FA03F322EA03031943F1
:1023A000002807DB0901C9B2074B195430BC70473C
:1023B0000023E9E700F00F000901C9B2034B1954EB
:1023C000F4E700BF00ED00E000E400E014ED00E001
:1023D000002807DB00F01F02400901239340024A56
:1023E00042F82030704700BF00E100E0002800F014
:1023F000D78238B50446036813F0010F25D0AA4AE6
:10240000136903F03803926A102B15D0182B0FD0E4
:102410006368B3F5803F3FD0002B53D1A24B1A68BD
:1024200022F480321A601A6822F480221A6038E09E
:1024300002F00302022AEBD19B4B1B6813F4003F0E
:1024400003D06368002B00F0AD82236813F0020F05
:1024500000F08880944A1369926A13F038035AD0C6
:10246000182B55D0E368002B00F0A9808E490A682C
:1024700022F0190213430B6000F0B4FE05468A4BAC
:102480001B6813F0040F40F0918000F0ABFE401B7E
:102490000228F4D903208CE2834A136843F4803382
:1024A000136063682BB300F09DFE05467E4B1B68EE
:1024B00013F4003FC9D100F095FE401B6428F5D904
:1024C000032076E2B3F5A02F09D0774B1A6822F4E7
:1024D00080321A601A6822F480221A60E1E7724B97
:1024E0001A6842F480221A601A6842F480321A6034
:1024F000D7E700F077FE05466B4B1B6813F4003FEF
:10250000A3D000F06FFE401B6428F5D9032050E2F1
:1025100012F0030FA6D1644B1B6813F0040F03D015
:10252000E368002B00F040825F4A136823F0190330
:10253000E1680B43136000F055FE05465A4B1B68DB
:1025400013F0040F06D100F04DFE401B0228F5D910
:1025500003202EE2544A536823F0FE43216943EAE4
:1025600001635360236813F0100F51D04E4A136972
:1025700003F03803926A082B39D0182B33D0E36963
:10258000002B68D0484A136843F08003136000F0C2
:1025900029FE0546444B1B6813F4807F52D100F09E
:1025A00021FE401B0228F5D9032002E23E4A53686F
:1025B00023F0FE43216943EA01635360D2E73A4ABC
:1025C000136823F00103136000F00CFE0546364B40
:1025D0001B6813F0040FC5D000F004FE401B022856
:1025E000F5D90320E5E102F00302012AC7D12E4B01
:1025F0001B6813F4807F03D0E369802B40F0D68101
:10260000294AD36823F07C53216A43EA0163D360EB
:10261000236813F0080F49D0636983B3224A536FCC
:1026200043F00103536700F0DDFD05461E4B5B6F71
:1026300013F0020F3AD100F0D5FD401B0228F5D966
:102640000320B6E1184AD36823F07C53216A43EA99
:102650000163D360DCE7144A136823F0800313603E
:1026600000F0C0FD0546104B1B6813F4807FCFD0EF
:1026700000F0B8FD401B0228F5D9032099E10A4A71
:10268000536F23F00103536700F0ACFD0546064B82
:102690005B6F13F0020F09D000F0A4FD401B02286D
:1026A000F5D9032085E100BF00440258236813F0E8
:1026B000200F29D0A3699BB1A84A136843F4805323
:1026C000136000F08FFD0546A44B1B6813F4005FF8
:1026D0001AD100F087FD401B0228F5D9032068E1DC
:1026E0009E4A136823F48053136000F07BFD054677
:1026F0009A4B1B6813F4005F06D000F073FD401B7B
:102700000228F5D9032054E1236813F0040F21D1E6
:10271000636A002B00F04C81904A126902F0380283
:10272000182A00F0EA80022B75D08C4A136823F037
:102730008073136000F056FD0446884B1B6813F04D
:10274000007F00F0D88000F04DFD001B0228F4D976
:1027500003202EE1824A136843F48073136000F073
:1027600041FD05467E4B1B6813F4807F06D100F0C7
:1027700039FD401B6428F5D903201AE1A368012B19
:102780000AD00BBB754B1A6F22F001021A671A6F41
:1027900022F004021A6704E0704A136F43F0010349
:1027A0001367A36833B300F01DFD05466B4B1B6F29
:1027B00013F0020FACD100F015FD401B41F288333D
:1027C0009842F3D90320F4E0052B09D0634B1A6F2C
:1027D00022F001021A671A6F22F004021A67E0E77A
:1027E0005E4B1A6F42F004021A671A6F42F0010240
:1027F0001A67D6E700F0F6FC0546584B1B6F13F03E
:10280000020F85D000F0EEFC401B41F28833984265
:10281000F3D90320CDE0514A136823F0807313608D
:1028200000F0E0FC05464D4B1B6813F0007F06D01E
:1028300000F0D8FC401B0228F5D90320B9E0474B33
:10284000996A484A0A40A16AE06A41EA00110A43CB
:102850009A62226B013AC2F30802616B01394902A4
:1028600089B20A43A16B0139090401F4FE010A434C
:10287000E16B0139090601F0FE410A431A63DA6A85
:1028800022F00102DA62596B374A0A40A16C42EA2F
:10289000C1025A63DA6A22F00C02216C0A43DA623E
:1028A000DA6A22F00202616C0A43DA62DA6A42F4FE
:1028B0008032DA62DA6A42F40032DA62DA6A42F4C8
:1028C0008022DA62DA6A42F00102DA621A6842F0C1
:1028D00080721A6000F086FC0446204B1B6813F0DF
:1028E000007F06D100F07EFC001B0228F5D90320F2
:1028F0005FE000205DE000205BE018498A6A086B19
:10290000012B57D002F00303A16A8B4254D1C2F3CA
:102910000512E36A9A4251D1C0F30802236B013BCE
:102920009A424DD1C0F34622636B013B9A4249D192
:10293000C0F30642A36B013B9A4245D1C0F3066047
:10294000E36B013B984241D1044B5B6BC3F3CC0377
:10295000A26C9A420AD100202BE000BF004402582A
:10296000004802580CFCFFFF0700FFFF184AD36A1B
:1029700023F00103D36200F035FC054600F032FC81
:10298000A842FBD0124A516B124B0B40A16C43EA98
:10299000C1035363D36A43F00103D362002008E00C
:1029A00001207047012004E0012002E0012000E046
:1029B000002038BD0120FCE70120FAE70120F8E7FC
:1029C0000120F6E70120F4E70120F2E70120F0E71B
:1029D000004402580700FFFF744B1B6903F03803E3
:1029E000102B00F0DF80182B10D00BB1704870470F
:1029F0006E4B1B6813F0200F00F0D6806B4B1868ED
:102A0000C0F3C1006B4B23FA00F0704710B4674A63
:102A1000916A01F00301946AC4F30510D36A03F0CC
:102A20000103526BC2F3CC0203FB02F307EE903AB0
:102A3000F8EE677A14F47C7F00F09480012966D068
:102A4000022900F09280E1B107EE100AF8EE476A21
:102A50009FED596A86EE267A544B1B6BC3F308032D
:102A600006EE903AF8EE666A9FED546A67EE867A53
:102A700076EEA77AF7EE006A77EEA67A27EE277A47
:102A800061E04A4B1B6813F0200F23D047490A68C6
:102A9000C2F3C102474BD34007EE103AF8EE476A43
:102AA00007EE100AB8EE476A86EE867A0B6BC3F320
:102AB000080306EE903AF8EE666A9FED406A67EE0C
:102AC000867A76EEA77AF7EE006A77EEA67A27EE98
:102AD000277A38E007EE100AF8EE476A9FED386A69
:102AE00086EE267A314B1B6BC3F3080306EE903A51
:102AF000F8EE666A9FED316A67EE867A76EEA77A1F
:102B0000F7EE006A77EEA67A27EE277A1BE007EE4B
:102B1000100AF8EE476A9FED286A86EE267A234B64
:102B20001B6BC3F3080306EE903AF8EE666A9FED5E
:102B3000236A67EE867A76EEA77AF7EE006A77EE7A
:102B4000A67A27EE277A194B1B6BC3F34623013372
:102B500007EE903AF8EE677AC7EE276AFCEEE67A5F
:102B600017EE900A5DF8044B704707EE100AF8EE76
:102B7000476A9FED146A86EE267A0C4B1B6BC3F3F3
:102B8000080306EE903AF8EE666A9FED0C6A67EE6F
:102B9000867A76EEA77AF7EE006A77EEA67A27EEC7
:102BA000277AD0E708487047024870470044025827
:102BB00000093D000090D0030024744A0000003951
:102BC0000024744C20BCBE4B40787D01002800F0EE
:102BD000328170B50D4604469B4B1B6803F00F0312
:102BE0008B420BD2984A136823F00F030B431360F8
:102BF000136803F00F038B4240F01F81236813F02A
:102C0000040F0CD02269914B9B6903F070039A4228
:102C100005D98E498B6923F070031A438A612368B2
:102C200013F0080F0CD06269884BDB6903F0700366
:102C30009A4205D98549CB6923F070031A43CA61CA
:102C4000236813F0100F0CD0A269804BDB6903F4EA
:102C5000E0639A4205D97D49CB6923F4E0631A43C6
:102C6000CA61236813F0200F0CD0E269774B1B6A0E
:102C700003F070039A4205D974490B6A23F070037C
:102C80001A430A62236813F0020F0CD0E2686F4BFC
:102C90009B6903F00F039A4205D96C498B6923F0B5
:102CA0000F031A438A61236813F0010F41D0674A6A
:102CB000936923F47063A1680B4393616368022BEB
:102CC0000AD0032B27D0012B2CD0604A126812F0B7
:102CD000040F06D10120ADE0126812F4003F00F0AD
:102CE000AE805A490A6922F0070213430B6100F0D3
:102CF00079FA0646554B1B6903F038036268B3EB5B
:102D0000C20F16D000F06EFA801B41F28833984251
:102D1000F0D903208EE04D4A126812F0007FE0D116
:102D2000012087E0494A126812F4807FD9D101203E
:102D300080E0236813F0020F0CD0E268434B9B69DC
:102D400003F00F039A4205D240498B6923F00F0329
:102D50001A438A613C4B1B6803F00F03AB420AD94C
:102D6000394A136823F00F032B431360136803F0F1
:102D70000F03AB4265D1236813F0040F0CD0226916
:102D8000324B9B6903F070039A4205D22F498B693D
:102D900023F070031A438A61236813F0080F0CD0E4
:102DA00062692A4BDB6903F070039A4205D2274916
:102DB000CB6923F070031A43CA61236813F0100F24
:102DC0000CD0A269214BDB6903F4E0639A4205D27F
:102DD0001E49CB6923F4E0631A43CA61236813F0E8
:102DE000200F0CD0E269194B1B6A03F070039A4262
:102DF00005D216490B6A23F070031A430A62FFF7E3
:102E0000EBFD12498B69C3F30323114AD35C03F032
:102E10001F03D8408B6903F00F03D35C03F01F033B
:102E200020FA03F30B4A13600B4B18600B4B186826
:102E3000FFF742FA70BD012070470120FAE7012038
:102E4000F8E70120F6E700BF0020005200440258D6
:102E50005C7200084C08002048080020440800204C
:102E600008B5FFF7B9FD0B4A9369C3F303230A4979
:102E7000CB5C03F01F0320FA03F3926902F00F0208
:102E8000885C00F01F0023FA00F0044A1060044A36
:102E9000136008BD004402585C7200084C08002012
:102EA0004808002008B5FFF7DBFF054BDB69C3F3DB
:102EB0000223044AD35C03F01F03D84008BD00BFBF
:102EC000004402585C7200083F230360114B1A69EA
:102ED00002F0070242609A6902F4706282609A69A5
:102EE00002F00F02C2609A6902F070020261DA69B0
:102EF00002F070024261DA6902F4E06282611B6AE8
:102F000003F07003C361044B1B6803F00F030B60F5
:102F1000704700BF0044025800200052F0B482B055
:102F200000235FE086685F000325BD4026EA0506B2
:102F3000CD68BD4035438560466826EA04064D6885
:102F4000C5F300149C403443446059E0DD08083563
:102F500050F8257003F00704A6000F24B44027EAB8
:102F600004070C69B4403C4340F825405CE0092468
:102F700000E00024B4403C4302355C4E46F8254056
:102F80004FF0B0442568D44325EA02064F6817F491
:102F9000801F01D042EA05064FF0B0452E606E68F2
:102FA00004EA06054F6817F4001F01D042EA06053F
:102FB0004FF0B04675604E4D6D6804EA05064F68E7
:102FC00017F4003F01D042EA0506494D6E602D68B6
:102FD0002C404E6816F4803F01D042EA0504444A72
:102FE000146001330A6832FA03F47BD001249C4058
:102FF0002240F6D04D6805F00305013D012D91D921
:103000004C6804F00304032C09D0C5685E00032457
:10301000B44025EA04058C68B4402C43C4604C6875
:1030200004F00304022C91D005685E000324B44030
:1030300025EA04054C6804F00304B4402C43046002
:103040004C6814F4403FCCD02A4CD4F8F45045F0EE
:103050000205C4F8F450D4F8F44004F002040194DA
:10306000019C9D08AE1C214C54F8267003F003040B
:10307000A6000F24B44027EA04071F4CA0423FF4E7
:1030800078AF04F58064A0421ED004F58064A042AD
:103090001CD004F58064A0421AD004F58064A042DC
:1030A00018D004F58064A04216D004F58064A042D4
:1030B00014D004F58064A04212D004F50064A0424C
:1030C0003FF455AF0A2455E7012453E7022451E7A2
:1030D00003244FE704244DE705244BE7062449E782
:1030E000072447E702B0F0BC704700BF0004005857
:1030F0008000005800440258000002580AB1816163
:103100007047090481617047436901EA030221EABB
:10311000030141EA0241816170470000134BDB6803
:1031200013F0040F07D1114BDB6803F00703834250
:103130001AD00120704710B50C4AD36823F007035A
:103140001843D06000F04EF80446084B5B6813F457
:10315000005F07D100F046F8001BB0F57A7FF4D984
:10316000012000E0002010BD0020704700480258F8
:1031700010B50320FFF7E8F8FFF72EFC0F498B6925
:10318000C3F303230E4AD35C03F01F03D8408B69BB
:1031900003F00F03D35C03F01F0320FA03F3094A83
:1031A0001360094B18600F20FFF786F810B1012457
:1031B000204610BD0446FFF71FF8F9E70044025807
:1031C0005C7200084C08002048080020034B1B7864
:1031D000034A11680B441360704700BF4008002089
:1031E00004550020014B1868704700BF04550020AB
:1031F000F0B4036A23F001030362036A446885693B
:103200001E4A2A400E68164323F002038D682B43A2
:103210001B4A1C4DA84218BF90420CBF012200223D
:103220000CD005F58045A84214BF00250125164F96
:10323000B84203D015B9154DA84205D123F00803B3
:10324000CD682B4323F004035AB9114A904214BFAE
:10325000002201220C4DA84203D012B90B4A904221
:1032600005D124F440724C6914438A6914434460C4
:1032700086614A6842630362F0BC70478CFFFEFFC0
:1032800000000140000401400040014000480140AE
:103290000044014070B4036A23F480730362036A3C
:1032A0004468C5691A4A2A400E68164323F400731D
:1032B0008A6843EA0223174A174DA84218BF904272
:1032C0000CBF0122002206D123F40063CD6843EA3B
:1032D000052323F480635AB9104A904214BF002298
:1032E00001220F4DA84203D012B90E4A904207D1D5
:1032F00024F440544A6944EA02148A6944EA0214F4
:103300004460C6614A68C263036270BC704700BF14
:103310008CFFFEFF0000014000040140004401401A
:10332000004001400048014070B4036A23F4805318
:103330000362036A4468C569144A2A400D6842EA78
:10334000052223F400538D6843EA0533104E114DD6
:10335000A84218BFB0420DD005F58045A84214BF61
:103360000025012506F58046B04203D015B90A4D67
:10337000A84204D124F480444D6944EA8514446091
:10338000C2614A680264036270BC7047FF8CFFFE32
:1033900000000140000401400048014070B4036A8D
:1033A00023F480330362036A4268456D144C2C4059
:1033B0000D682C4323F400338D6843EA0543114E16
:1033C000114DA84218BFB0420DD005F58045A84266
:1033D00014BF0025012506F58046B04203D015B97B
:1033E0000A4DA84204D122F480324D6942EA0522F6
:1033F000426044654A688265036270BC704700BFE2
:103400008FFFFEFF00000140000401400048014022
:1034100070B4036A23F480130362036A4468456D41
:10342000144A2A400D6842EA052223F400138D68ED
:1034300043EA0553104E114DA84218BFB0420DD0BB
:1034400005F58045A84214BF0025012506F58046F4
:10345000B04203D015B90A4DA84204D124F4802407
:103460004D6944EA8524446042654A68C265036246
:1034700070BC7047FF8FFFFE000001400004014058
:103480000048014030B4036A056A25F00105056271
:10349000846924F0F00444EA021423F00A030B4385
:1034A0008461036230BC704730B4056A25F01005B2
:1034B00005628469036A24F4704444EA023423F008
:1034C000A00343EA01138461036230BC704700002B
:1034D0008268034B13400B4343F00703836070473C
:1034E0008FFFCFFF90F83D30DBB2012B42D102239A
:1034F00080F83D300268D36843F00103D36003686D
:103500001E4AB3F1804F18BF934225D0A2F57C42EA
:10351000934221D002F5806293421DD002F5806271
:10352000934219D002F57842934215D0A2F56C422D
:10353000934211D002F5943293420DD0A2F5C042CD
:10354000934209D002F58062934205D01A6842F096
:1035500001021A60002070479968094A0A40062A49
:1035600018BFB2F5803F07D01A6842F001021A6016
:103570000020704701207047002070470000014084
:10358000070001007047704770477047704710B5DB
:10359000044603681A6912F0020F11D0DA6812F0BB
:1035A000020F0DD06FF002021A6101230377036846
:1035B0009B6913F0030F79D0FFF7E6FF0023237711
:1035C00023681A6912F0040F12D0DA6812F0040F9F
:1035D0000ED06FF004021A610223237723689B69DF
:1035E00013F4407F68D02046FFF7CEFF00232377F7
:1035F00023681A6912F0080F12D0DA6812F0080F67
:103600000ED06FF008021A61042323772368DB6968
:1036100013F0030F57D02046FFF7B6FF00232377A0
:1036200023681A6912F0100F12D0DA6812F0100F26
:103630000ED06FF010021A61082323772368DB692C
:1036400013F4407F46D02046FFF79EFF00232377E8
:1036500023681A6912F0010F03D0DA6812F0010F23
:103660003FD123681A6912F0800F03D0DA6812F094
:10367000800F3DD123681A6912F4807F03D0DA6885
:1036800012F0800F3BD123681A6912F0400F03D06B
:10369000DA6812F0400F39D123681A6912F0200F4E
:1036A00003D0DA6812F0200F37D110BDFFF76BFF9F
:1036B0002046FFF76AFF81E72046FFF764FF2046B8
:1036C000FFF763FF92E72046FFF75DFF2046FFF715
:1036D0005CFFA3E72046FFF756FF2046FFF755FFA4
:1036E000B4E76FF001021A61204602F01DFCB8E752
:1036F0006FF080021A61204600F05BFBBAE76FF4BE
:1037000080721A61204600F055FBBCE76FF0400262
:103710001A612046FFF73AFFBEE76FF020021A61F8
:10372000204600F045FBC0E770B403683C4CA04263
:1037300014BF00240124B0F1804F14BF224644F08E
:103740000102AAB9374DA84214BF00250125364E03
:10375000B0420DD065B905F1804505F58235A84226
:1037600014BF0025012506F50066B04200D01DB14A
:1037700023F070034D682B4362BB2A4A904214BF6A
:1037800000220122284DA84224D01ABB02F1804217
:1037900002F58232904214BF0022012205F5006535
:1037A000A84217D0B2B9214A904214BF0022012288
:1037B00005F59A35A8420DD062B91D4A904214BF52
:1037C0000022012205F50065A84203D012B9194A6A
:1037D000904203D123F44073CA68134323F080035B
:1037E0004A69134303608A68C2620A688262124BA4
:1037F000984214BF234644F001035BB90B4B984237
:1038000014BF002301230D4A904203D013B90C4B7F
:10381000984201D10B6903630123436170BC704777
:103820000000014000080040000400400044014046
:1038300000E0004000E4004000040140004001407E
:103840000048014060B310B5044690F83D3013B312
:10385000022384F83D30214651F8040BFFF764FF42
:10386000012384F8483084F83E3084F83F3084F8EF
:10387000403084F8413084F8423084F8433084F892
:10388000443084F8453084F8463084F8473084F872
:103890003D30002010BD80F83C30FEF7C7FCD7E774
:1038A0000120704760B310B5044690F83D3013B363
:1038B000022384F83D30214651F8040BFFF734FF12
:1038C000012384F8483084F83E3084F83F3084F88F
:1038D000403084F8413084F8423084F8433084F832
:1038E000443084F8453084F8463084F8473084F812
:1038F0003D30002010BD80F83C30FFF743FED7E795
:103900000120704770B4036A23F010030362036A56
:10391000446885691A4A2A400E6842EA062623F05E
:1039200020038A6843EA0213164A174DA84218BFBB
:1039300090420CBF0122002206D123F08003CD6803
:1039400043EA051323F040035AB9104A904214BFCA
:10395000002201220E4DA84203D012B90D4A904216
:1039600007D124F440644A6944EA82048A6944EA3B
:103970008204446086614A688263036270BC704757
:10398000FF8CFFFE000001400004014000440140A4
:10399000004001400048014090F83C30012B36D0F7
:1039A00010B50446012380F83C30142A2AD8DFE8F9
:1039B00002F00B29292910292929152929291A2931
:1039C00029291F29292924000068FFF711FC00205C
:1039D00019E00068FFF796FF002014E00068FFF789
:1039E00059FC00200FE00068FFF79EFC00200AE071
:1039F0000068FFF7D3FC002005E00068FFF708FD32
:103A0000002000E00120002384F83C3010BD02209B
:103A1000704710B4846824F47F4442EA03220A43C6
:103A2000224382605DF8044B7047000090F83C3000
:103A3000012B00F08F8010B50446012380F83C3044
:103A4000022380F83D3002689068434B0340936046
:103A50000B68702B55D031D8502B6CD00CD9602B03
:103A60002AD1CA6849682068FFF71EFD60212068D6
:103A7000FFF72EFD002035E0402B0AD1CA684968C7
:103A80002068FFF7FFFC40212068FFF721FD0020A0
:103A900028E05BD8202B07D003D9302B04D001209D
:103AA00020E00BB1102B05D119462068FFF710FD5F
:103AB000002017E0012015E0012013E0B3F5005FBE
:103AC0002CD00BD9254A9342EED012D9244A9342E6
:103AD000EAD010329342E7D0012003E0B3F5805FD3
:103AE00036D10020012384F83D30002384F83C3097
:103AF00010BDB3F5801FD7D0B3F1101FD4D0012073
:103B0000F0E7CB684A6889682068FFF782FF22687F
:103B1000936843F0770393600020E3E7CB684A683B
:103B200089682068FFF775FF2268936843F4804333
:103B300093600020D6E7CA6849682068FFF7A2FCB6
:103B400050212068FFF7C4FC0020CBE70120C9E723
:103B50000120C7E7022070478800CEFF2000100038
:103B60003000100010B401F01F01012303FA01F42A
:103B7000036A23EA04030362036A02FA01F10B43B6
:103B800003625DF8044B704710B5044608460029EF
:103B900056D194F83E30DBB2013B18BF0123002B15
:103BA00040F0A380002876D1022384F83E30012221
:103BB00001462068FFF7D6FF23684E494E4A9342DC
:103BC00018BF8B420BD002F57052934207D002F51A
:103BD0008062934203D002F58062934203D15A6C13
:103BE00042F400425A642368424AB3F1804F18BF3E
:103BF00093426CD0A2F57C42934268D002F5806279
:103C0000934264D002F58062934260D002F578421C
:103C100093425CD0A2F56C42934258D002F59432A4
:103C2000934254D0A2F5C042934250D002F5806234
:103C300093424CD01A6842F001021A60002055E00D
:103C400004290CD0082911D00C2916D010291BD01A
:103C500094F84330DBB2013B18BF01239FE794F88F
:103C60003F30DBB2013B18BF012398E794F84030A6
:103C7000DBB2013B18BF012391E794F84130DBB27E
:103C8000013B18BF01238AE794F84230DBB2013BC5
:103C900018BF012383E7042809D008280BD00C287B
:103CA0000DD010280FD0022384F843307FE7022381
:103CB00084F83F307BE7022384F8403077E7022323
:103CC00084F8413073E7022384F842306FE7996843
:103CD0000A4A0A40062A18BFB2F5803F07D01A6880
:103CE00042F001021A60002000E0012010BD002017
:103CF000FCE700BF00000140000401400700010094
:103D000090F83C30012B4DD070B4012380F83C304A
:103D1000022380F83D3003685A689D68224E234C88
:103D2000A34218BFB34203D122F470024C6822436D
:103D300022F070020C6822435A6003681A4AB3F1F9
:103D4000804F18BF93421FD0A2F57C4293421BD0F4
:103D500002F58062934217D002F58062934213D03D
:103D600002F5784293420FD0A2F56C4293420BD0F9
:103D700002F59432934207D0A2F5C042934203D099
:103D800002F58062934204D125F080058A681543CC
:103D90009D60012380F83D30002380F83C301846B8
:103DA00070BC7047022070470000014000040140D1
:103DB0007047704770470000224AD2F8883043F4B9
:103DC0007003C2F88830204B1B6803F00F03062BEA
:103DD00006D81D4A136823F00F0343F0070313604E
:103DE0001A4B1A6842F001021A6000221A6119681F
:103DF000174A0A401A60144B1B6813F0080F06D0CC
:103E0000114A136823F00F0343F0070313600F4BAD
:103E100000229A61DA611A620E4999620E49D962EA
:103E20000E4919635A639963DA6319645A6419680D
:103E300021F4802119601A66094B43F2D2021A60FC
:103E4000704700BF00ED00E000200052004402581F
:103E50007FEDF6EA000202020000FF01800201018C
:103E60000040005200F1080343604FF0FF328260CF
:103E7000C360036100230360704700230361704740
:103E800043684B609A688A60516099600861036872
:103E900001330360704730B40D68B5F1FF3F11D0B6
:103EA00000F108031C465B681A68AA42FAD96368E5
:103EB0004B6099608C606160086103680133036046
:103EC00030BC70470469F2E70369416882688A6020
:103ED000416851605A68824206D0002202611A6825
:103EE000013A1A601868704782685A60F5E710B5A1
:103EF000044601F0E7FDA26BE36B9A4204D0002474
:103F000001F002FE204610BD0124F9E710B5044679
:103F100001F0D8FDA36B23B9012401F0F5FD204683
:103F200010BD0024F9E770B504461546866B026C97
:103F30005AB903681BB100200136A66370BD8068C2
:103F400000F0D4FF0023A360F6E76DB94068FCF7EA
:103F500019FD226C636813446360A268934219D30D
:103F6000236863602846E7E7C068FCF70BFD226C16
:103F70005142E3689B1AE3602268934202D2A3682D
:103F80000B44E360022D01D00020D5E726B1013EAD
:103F90000020D1E72846CFE70020CDE70346026C9A
:103FA0006AB110B50846D9681144D9609C68A1422D
:103FB00001D31968D960D968FCF7E4FC10BD7047DB
:103FC00038B5054601F07EFD95F8454064B203E042
:103FD00000F076FF013C64B2002C08DD6B6A33B15F
:103FE00005F1240000F0D8FE0028F3D0F0E7FF230D
:103FF00085F8453001F088FD01F064FD95F84440F6
:1040000064B203E000F05CFF013C64B2002C08DD08
:104010002B6933B105F1100000F0BEFE0028F3D08B
:10402000F0E7FF2385F8443001F06EFD38BD000055
:1040300038B5E0B10D46044601F044FD2168E26B5D
:10404000236C03FB0210A0600020A0636160013AB2
:1040500002FB0313E360FF2384F8443084F8453007
:10406000EDB9236963B901F04FFD012038BD4FF070
:10407000500383F31188BFF36F8FBFF34F8FFEE7B9
:1040800004F1100000F088FE0028ECD0084B4FF03F
:1040900080521A60BFF34F8FBFF36F8FE3E704F1D5
:1040A0001000FFF7DFFE04F12400FFF7DBFEDAE784
:1040B00004ED00E038B51D46049C0B4649B9246068
:1040C000E063236401212046FFF7B2FF84F84C50DF
:1040D00038BD2260F4E740B94FF0500383F31188F4
:1040E000BFF36F8FBFF34F8FFEE730B585B01C462F
:1040F0007BB10B1E18BF0123002A08BF01238BB917
:104100004FF0500383F31188BFF36F8FBFF34F8FCE
:10411000FEE74FF0500383F31188BFF36F8FBFF3B7
:104120004F8FFEE7B1FA81F35B09002A18BF012324
:1041300043B94FF0500383F31188BFF36F8FBFF380
:104140004F8FFEE750230393039B502B08D04FF073
:10415000500383F31188BFF36F8FBFF34F8FFEE7D8
:10416000039B012384F8463000949DF82030FFF72C
:10417000A1FF204605B030BDF0B585B0019288B1F1
:104180000E461D460446B1B1022D20D1E36B012B32
:104190001DD04FF0500383F31188BFF36F8FBFF32F
:1041A0004F8FFEE74FF0500383F31188BFF36F8FFB
:1041B000BFF34F8FFEE7036C002BE5D04FF05003A9
:1041C00083F31188BFF36F8FBFF34F8FFEE700F0CB
:1041D0007DFE074658B9019B002B44D04FF0500399
:1041E00083F31188BFF36F8FBFF34F8FFEE7002774
:1041F00039E02A4631462046FFF795FE626A6AB9E1
:1042000038B13C4B4FF080521A60BFF34F8FBFF371
:104210006F8F01F079FC012005B0F0BD04F124009E
:1042200000F0BAFD0028F4D0324B4FF080521A60F3
:10423000BFF34F8FBFF36F8FEBE701F065FC0020FA
:10424000EAE702A800F0EEFD012719E0002384F858
:10425000443021E0002384F8453023E02046FFF776
:10426000AFFE00F077FC01F02DFCA26BE36B9A42ED
:10427000BFD3022DBDD0019B002BDED0002FE0D09C
:1042800001F042FC00F0CAFB01F01CFC94F8443041
:104290005BB2B3F1FF3FD9D094F845305BB2B3F1D4
:1042A000FF3FD7D001F030FC01A902A800F0C6FD05
:1042B000C8B92046FFF71BFE0028CFD0019904F1B2
:1042C000100000F035FD2046FFF77AFE00F042FCBA
:1042D0000028C8D1074B4FF080521A60BFF34F8FB0
:1042E000BFF36F8FBFE72046FFF76AFE00F032FC96
:1042F000002091E704ED00E02DE9F84390B18946F4
:1043000090461F460446B1B1022F20D1E36B012B2A
:104310001DD04FF0500383F31188BFF36F8FBFF3AD
:104320004F8FFEE74FF0500383F31188BFF36F8F79
:10433000BFF34F8FFEE7036C002BE5D04FF0500327
:1043400083F31188BFF36F8FBFF34F8FFEE701F048
:10435000E3FCEFF311864FF0500383F31188BFF3B2
:104360006F8FBFF34F8FA26BE36B9A4206D3022F7E
:1043700004D0002086F31188BDE8F88394F84550F6
:104380006DB2A36B3A4649462046FFF7CCFDB5F126
:10439000FF3F05D06B1C5BB284F845300120E9E794
:1043A000636A0BB90120E5E704F1240000F0F4FC96
:1043B00030B1B8F1000F05D00120C8F80000D9E7EE
:1043C0000120D7E70120D5E7F0B585B0019290B183
:1043D0000E460446C1B100F079FD074600BB019BC3
:1043E000002B5CD04FF0500383F31188BFF36F8F25
:1043F000BFF34F8FFEE74FF0500383F31188BFF3F5
:104400006F8FBFF34F8FFEE7036C002BE3D04FF0AD
:10441000500383F31188BFF36F8FBFF34F8FFEE715
:1044200000273CE031462046FFF7B8FD013DA5637B
:10443000236923B901F068FB012005B0F0BD04F148
:10444000100000F0A9FC0028F4D0354B4FF080524A
:104450001A60BFF34F8FBFF36F8FEBE701F054FB90
:104460000020EAE702A800F0DDFC012721E000239C
:1044700084F8443029E0002384F845302BE02046BE
:10448000FFF79EFD00F066FB09E02046FFF798FD70
:1044900000F060FB2046FFF739FD00283DD101F018
:1044A00011FBA56B002DBDD1019B002BD6D0002F99
:1044B000D8D001F029FB00F0B1FA01F003FB94F829
:1044C00044305BB2B3F1FF3FD1D094F845305BB2DA
:1044D000B3F1FF3FCFD001F017FB01A902A800F014
:1044E000ADFC0028D1D12046FFF710FD0028C6D032
:1044F000019904F1240000F01BFC2046FFF760FD49
:1045000000F028FB0028CAD1054B4FF080521A60FA
:10451000BFF34F8FBFF36F8FC1E700208DE700BF60
:1045200004ED00E0002300E00133072B0BD8064A1E
:1045300052F83320002AF7D1034A42F8331002EB35
:10454000C3035860704770470855002070B5044693
:104550000D46164601F0B6FA94F844305BB2B3F15A
:10456000FF3F0DD094F845305BB2B3F1FF3F0BD065
:1045700001F0CAFAA36B5BB12046FFF721FD70BDC5
:10458000002384F84430EDE7002384F84530EFE75A
:104590003246294604F1240000F0E2FBECE700007B
:1045A000084B1B681B6823B9074B4FF0FF321A609A
:1045B0007047044B1B68DB68DB685A68024B1A6063
:1045C000704700BFB4080020580D00202DE9F84FB7
:1045D00080460D46934699460A9EDDF82CA00C9C19
:1045E0009200A521206BFCF767FA276B6FF0404320
:1045F0005B4407EB830727F0070785B300220F2AE8
:1046000007D8A95CA31883F83410AB5C0BB1013256
:10461000F5E7002384F84330372E00D93726E662C9
:10462000E66400252565201DFFF727FC04F118002E
:10463000FFF723FC2461C6F13806A6616462656554
:1046400084F858504A464146384601F011FA206035
:10465000BAF1000F01D0CAF80040BDE8F88F00237E
:1046600084F83430D8E7000038B50024372C08D857
:1046700004EB840293000E481844FFF7F3FB013467
:10468000F4E70C4D2846FFF7EDFB0B4C2046FFF7F7
:10469000E9FB0A48FFF7E6FB0948FFF7E3FB094897
:1046A000FFF7E0FB084B1D60084B1C6038BD00BFE6
:1046B000BC080020300D0020440D0020640D0020B7
:1046C000900D00207C0D0020B4080020B8080020C8
:1046D00010B5044601F0F6F9214A1368013313605E
:1046E000204B1B685BB1204B1B686BB91D4B1B68D3
:1046F000DA6AE36A9A4207D81A4B1C6004E0194B45
:104700001C601368012B27D0184A1368013313600B
:104710006364E06A164B1B68984201D9144B186019
:1047200000EB8000211D134B03EB8000FFF7A8FB7B
:1047300001F0EAF90C4B1B686BB10A4B1B68DA6A93
:10474000E36A9A4207D20C4B4FF080521A60BFF3D3
:104750004F8FBFF36F8F10BDFFF786FFD4E700BF09
:104760001C0D0020B0080020780D0020280D00202E
:104770002C0D0020BC08002004ED00E010B504461C
:1047800090F8593063B1012B11D0022B0ED04FF0AD
:10479000500383F31188BFF36F8FBFF34F8FFEE792
:1047A000006B01F0E9F8204601F0E6F810BD01F0D9
:1047B000E3F8FBE70F4B1B68D3B110B501F082F9AA
:1047C0000D4BDB68DC68201DFFF77EFB0B4A13688E
:1047D000013B1360074A1368013B136001F094F931
:1047E0002046FFF7CBFF034B1B68002BE6D110BD23
:1047F000704700BF200D0020900D00201C0D0020F0
:1048000008B5FFF7D7FF064B1B68012BF9D9054BFD
:104810004FF080521A60BFF34F8FBFF36F8FF0E7F6
:10482000BC08002004ED00E070B504460D46194BAD
:104830001E68194B18680430FFF746FBB4F1FF3FC0
:1048400014BF00230123002D08BF00236BB934449B
:10485000114B1B685C60A6420ED9104B18680E4BBA
:1048600019680431FFF717FB70BD0B4B1968043151
:104870000B48FFF705FBF7E70A4B1868064B19686A
:104880000431FFF708FB084B1B68A342ECD9064B29
:104890001C60E9E7A40D0020B0080020B808002043
:1048A0007C0D0020B4080020580D002070B586B0A3
:1048B0000B9D0C9C75B1B4B15C260496049E5C2ED5
:1048C0001AD04FF0500383F31188BFF36F8FBFF3FB
:1048D0004F8FFEE74FF0500383F31188BFF36F8FC4
:1048E000BFF34F8FFEE74FF0500383F31188BFF300
:1048F0006F8FBFF34F8FFEE7049E2563022584F878
:10490000595000250395029405AD01950A9D009527
:10491000FFF75CFE2046FFF7DBFE059806B070BD92
:104920002DE9F04385B00746884614461E469000A0
:1049300000F0A4FF00B381465C2000F09FFF054615
:10494000B0B1C0F83090E5B1002385F85930039339
:1049500002950D9B01930C9B0093334622464146E2
:104960003846FFF733FE2846FFF7B2FE012005E088
:10497000484601F001F8E6E74FF0FF3005B0BDE82A
:10498000F0834FF0FF30F9E710B588B000240594AC
:10499000069407AA06A905A800F0FAFE059B029353
:1049A000069B019300942346079A17491748FFF77F
:1049B0007DFF48B100F078FB0346012B06D0B3F130
:1049C000FF3F18D008B010BD0023F6E74FF05003AA
:1049D00083F31188BFF36F8FBFF34F8F0C4B4FF0F2
:1049E000FF321A600B4B01221A600B4B00221A6037
:1049F00001F00AF9E6E74FF0500383F31188BFF3A3
:104A00006F8FBFF34F8FFEE76C72000801480008FC
:104A1000580D0020780D0020A40D0020024A1368D4
:104A200001331360704700BF240D0020014B18684C
:104A3000704700BFA40D0020F8B53B4B1B68002B4E
:104A40006AD13A4B1D6801351D60C5B9384B1B68EA
:104A50001B6843B14FF0500383F31188BFF36F8F8E
:104A6000BFF34F8FFEE7324A1168324B186810606F
:104A70001960314A136801331360FFF791FD2F4B22
:104A80001B68AB4211D900242D4B1B68DB6A03EB7A
:104A900083039A002B4B9B58012B00D901242A4BEE
:104AA0001B68002B3DD001243BE0002416E0234B83
:104AB0004FF0FF321A60E7E7204A1360E4E703EBA8
:104AC00083039A0039461F481044FFF7D9F9F26A68
:104AD0001B4B1B68DB6A9A4200D30124144B1B68F2
:104AE0001B68002BE3D0124B1B68DB68DE68736821
:104AF0009D42E1D3371D3846FFF7E6F9B36A1BB193
:104B000006F11800FFF7E0F9F36A104A12689342C1
:104B1000D5D90E4A1360D2E70D4A136801331360EA
:104B200000242046F8BD00BF240D0020A40D002065
:104B3000B4080020B80800205C0D0020580D0020AB
:104B4000B0080020BC080020A80D00202C0D00207B
:104B5000600D002038B5344B1B6843B94FF050034B
:104B600083F31188BFF36F8FBFF34F8FFEE700F021
:104B7000A9FF2D4B1A68013A1A601B68002B4DD112
:104B80002A4B1B680BB9002449E00024284B1B6802
:104B90001BB3274BDB68DC6804F11800FFF794F9BE
:104BA000251D2846FFF790F9E06A224B1B689842C2
:104BB00001D9204B186000EB800029461E4B03EB07
:104BC0008000FFF75DF9E26A1C4B1B68DB6A9A42C2
:104BD000DCD31B4B01221A60D8E70CB1FFF7E0FCD5
:104BE000184B1C6874B9164B1C68C4B1164B4FF0B7
:104BF00080521A60BFF34F8FBFF36F8F01240EE016
:104C0000013C07D0FFF718FF0028F9D00C4B012218
:104C10001A60F5E70B4B00221A60E4E7002400F06D
:104C200073FF204638BD00BF240D00201C0D00205E
:104C3000640D00202C0D0020BC080020B0080020CE
:104C4000A80D0020600D002004ED00E010B5A8B113
:104C500004460F4B1B6843B14FF0500383F3118898
:104C6000BFF36F8FBFF34F8FFEE7FFF7D7FE002133
:104C70002046FFF7D9FDFFF76DFF38B9054B4FF020
:104C800080521A60BFF34F8FBFF36F8F10BD00BF0C
:104C9000240D002004ED00E0204B1B681BB1204BCD
:104CA00001221A6070471E4B00221A601D4B1B68C0
:104CB00003EB83018A001C498A585AB90BB1013BA6
:104CC000F6E74FF0500383F31188BFF36F8FBFF304
:104CD0004F8FFEE710B403EB830082000A44506854
:104CE0004068506003EB8304A2001446083211446C
:104CF00088420DD003EB830291000B4A0A445268AC
:104D0000D1680A4A1160074A13605DF8044B704786
:104D10004068054A22445060ECE700BF240D0020A3
:104D2000A80D00202C0D0020BC080020B008002099
:104D300058B110B50C46094B19681831FFF7ABF89C
:104D400001212046FFF770FD10BD4FF0500383F3A3
:104D50001188BFF36F8FBFF34F8FFEE7B0080020BD
:104D600038B570B10C4615460A4B19681831FFF773
:104D700087F80DB14FF0FF3429462046FFF754FD68
:104D800038BD4FF0500383F31188BFF36F8FBFF32B
:104D90004F8FFEE7B008002038B5C368DC6824B345
:104DA00004F118052846FFF78FF8184B1B682BBB3A
:104DB000251D2846FFF788F8E06A154B1B689842C6
:104DC00001D9134B186000EB80002946114B03EB0F
:104DD0008000FFF755F8E26A0F4B1B68DB6A9A42C6
:104DE00011D901200D4B18600EE04FF0500383F3F2
:104DF0001188BFF36F8FBFF34F8FFEE72946084836
:104E0000FFF73EF8E7E7002038BD00BF240D002083
:104E10002C0D0020BC080020B0080020A80D0020A8
:104E2000640D0020034B1B680360034B1B68436049
:104E3000704700BF5C0D0020A40D0020F8B5C8B17C
:104E40000C460546F9B100F03DFE1B4B19686B6836
:104E5000C81A2268B2F1FF3F26D02F68174E366875
:104E6000B74201D08B4224D9824215D80023236057
:104E700001241AE04FF0500383F31188BFF36F8FC2
:104E8000BFF34F8FFEE74FF0500383F31188BFF35A
:104E90006F8FBFF34F8FFEE75B1A134423602846E2
:104EA000FFF7C0FF002400E0002400F02DFE2046A4
:104EB000F8BD0124F9E700BFA40D00205C0D00201F
:104EC000014B01221A607047A80D0020054B1B689A
:104ED00033B1054B1B680BB10020704702207047AF
:104EE00001207047780D0020240D002000283BD0C1
:104EF00038B504461E4B1B68834208D04FF0500360
:104F000083F31188BFF36F8FBFF34F8FFEE7036DFD
:104F100043B94FF0500383F31188BFF36F8FBFF392
:104F20004F8FFEE7013B0365C16AC26C91421DD001
:104F30000BB1002038BD051D2846FEF7C5FFE06C0B
:104F4000E062C0F13803A3610A4B1B68984201D9A3
:104F5000084B186000EB80002946074B03EB8000EC
:104F6000FEF78EFF0120E5E7002070470020E1E713
:104F7000B00800202C0D0020BC080020064B1A6849
:104F800013682BB90123036023B9D36818687047ED
:104F90000023F8E700207047AC0D002008B5416001
:104FA000006191420CD8D21A83699A4201D3012040
:104FB00008BD011D0B4B1868FEF76DFF0020F7E7D9
:104FC0009A422CBF00220122994238BF00220AB126
:104FD0000120EDE7011D044B1868FEF75CFF00207F
:104FE000E6E700BFB00D0020AC0D002030B583B067
:104FF00000F068FD114B1B681BB100F085FD03B08C
:1050000030BD0F4D2846FEF72DFF0E4C2046FEF713
:1050100029FF0D4B1D600D4B1C60002300930C4BB2
:105020000C4A10210A20FFF756F8044B186000289C
:10503000E3D00949FFF776FADFE700BFD00E002082
:10504000540E0020680E0020AC0D0020B00D002092
:10505000800E0020B40D0020747200082DE9F0418C
:10506000079C41B94FF0500383F31188BFF36F8F52
:10507000BFF34F8FFEE7074615461E4688468CB1A4
:10508000FFF7B4FF2760C4F81880E661069B23622F
:10509000201DFEF7F2FE2DB194F8283043F00403F2
:1050A00084F82830BDE8F08110B588B0FFF79EFF86
:1050B000124B1B68CBB100240594069407AA06A9DD
:1050C00005A800F071FB059B0293069B0193022348
:1050D00000932346079A0A490A48FFF7E7FB0A4A62
:1050E000106010B1012008B010BD4FF0500383F3E1
:1050F0001188BFF36F8FBFF34F8FFEE7D00E0020F4
:105100007C720008A1540008D40E00202DE9F04163
:1051100082B00446884617461D462C2000F0AEFBA0
:10512000064658B1002380F828300190089B009370
:105130002B463A4641462046FFF790FF304602B0E4
:10514000BDE8F08130B585B0099C2C250395039D01
:105150002C2D08D04FF0500383F31188BFF36F8FCD
:10516000BFF34F8FFEE7039D54B1022584F828500A
:105170000194089D0095FFF771FF204605B030BDF2
:105180004FF0500383F31188BFF36F8FBFF34F8F3E
:10519000FEE70000C0B110B584B014461A460346BD
:1051A0001648006838B300910194029305291CDC6D
:1051B000FFF78CFE022810D000231A4669460F48DC
:1051C0000068FEF7D9FF14E04FF0500383F3118815
:1051D000BFF36F8FBFF34F8FFEE70023069A694638
:1051E00006480068FEF7C8FF03E000236946FFF7A2
:1051F00083F804B010BD0020FBE700BFD00E0020F4
:1052000070B582B01B4B1B681A6862B3DB681E68FE
:10521000DC68251D2846FEF757FE236A204698477E
:1052200094F8283013F0040FECD0A36933449E4265
:1052300007D26360246129460E4B1868FEF72BFEE7
:10524000E0E7002100910B4632462046FFF7A2FF1F
:105250000028D7D14FF0500383F31188BFF36F8F2D
:10526000BFF34F8FFEE7044A1068024908601360DD
:1052700002B070BDAC0D0020B00D002038B5054661
:10528000FFF7D4FB0446074B1B68834205D8002375
:105290002B60044B1C60204638BDFFF7B1FF012393
:1052A0002B60F6E77C0E002070B582B005460E46F6
:1052B000174B1B68DB68DC68201DFEF705FE94F8C1
:1052C000283013F0040F08D123F0010384F82830AC
:1052D000236A2046984702B070BDA1692B4632462A
:1052E00029442046FFF75AFE0028F1D00021009102
:1052F0000B462A462046FFF74DFF0028E8D14FF025
:10530000500383F31188BFF36F8FBFF34F8FFEE716
:10531000AC0D002070B582B006460C46FFF77EFB50
:1053200001A8FFF7ABFF019A4ABB0546B04234BF64
:1053300000230123002C18BF0023BBB924B1124B5A
:105340001B681B68CBB901242246711B0F4B1868E0
:10535000FFF7FCF8FFF7FEFB98B90D4B4FF08052BA
:105360001A60BFF34F8FBFF36F8F0AE0FFF7F2FBB6
:1053700029463046FFF798FF03E01446E4E7FFF7BD
:10538000E9FB02B070BD00BFB00D0020D00E0020C0
:1053900004ED00E010B588B006E007990698059B7B
:1053A0009847049B002B0BDA002204A93B4B18689A
:1053B000FFF70AF800286FD0049B002BF1DAECE726
:1053C000069C636913B1201DFEF77EFD03A8FFF75D
:1053D00055FF049B092BE7D8DFE803F005050530EE
:1053E00037500505303794F8283043F0010384F82E
:1053F0002830059BA169024619442046FFF7CEFDDF
:105400000028D1D0236A2046984794F8283013F01A
:10541000040FC9D0A269002100910B4605980244EF
:105420002046FFF7B7FE0028BED14FF0500383F3AC
:105430001188BFF36F8FBFF34F8FFEE794F82830CA
:1054400023F0010384F82830AEE794F8283043F0C5
:10545000010384F828300599A16131B10346024661
:1054600001442046FFF79AFD9EE74FF0500383F377
:105470001188BFF36F8FBFF34F8FFEE794F828308A
:1054800013F0020F04D023F0010384F828308BE7D7
:10549000204600F071FA87E708B010BDD00E00205A
:1054A00000B583B001A8FFF769FD0199FFF732FF4E
:1054B000FFF770FFF6E768B110B5044600F002FB95
:1054C00094F8283013F0010F0DD1002400F01CFBDC
:1054D000204610BD4FF0500383F31188BFF36F8F48
:1054E000BFF34F8FFEE70124F0E740B110B504464B
:1054F00000F0E8FAE46900F007FB204610BD4FF029
:10550000500383F31188BFF36F8FBFF34F8FFEE714
:1055100008B5FFF7EAFF10B102684068904708BD80
:1055200008B5054B1B68FFF7D1FC012800D108BD69
:1055300000F038FBFBE700BF10E000E0EFF305836D
:105540002BB9064B186828B901221A6070476FF012
:10555000050070474FF0FF30704700BF3411002046
:10556000EFF3058373B90A4B1B68012B0DD110B5FE
:105570000024084BDC77064B02221A60FFF704FA7E
:10558000204610BD6FF0050070474FF0FF307047A8
:105590003411002000ED00E0F0B587B00024059440
:1055A000EFF3058474BB68B322B31568936903B93C
:1055B00018235C1E372C49D8546814F0010F47D1CA
:1055C00056696EB14FEA960C94682CB1D7685B2F80
:1055D00002D9176907B1C6B92CB14FF0FF340EE0FC
:1055E0004FF0800CF0E7D4688CB9146994B14FF097
:1055F000FF3404E01546002418234FF0800C012CE2
:105600000AD0ACB1059807B0F0BD0124F7E74FF020
:10561000FF34F4E70024F2E71469926802920194DF
:1056200000930B4662462946FFF740F90590E9E7EB
:1056300005AA019200930B461FFA8CF22946FFF748
:105640006FF90128DED000230593DBE70020DAE7BD
:105650000020D8E708B5EFF3058333B908B9002077
:1056600008BDFFF7F3FA0020FAE76FF00500F7E74F
:105670002DE9F04383B0EFF30587002F43D10646B1
:10568000894615461C4600283FD0082000F0F6F851
:10569000804600283BD006604560B9F1000F00D07D
:1056A0000127F4B12068A36813B1E2682B2A0ED851
:1056B00043B14FF0FF33CBB1002404B3204603B015
:1056C000BDE8F083E3687BB14FF0FF33F3E701936C
:1056D000104B009343463A460121FFF733FD044641
:1056E000EBE720460023E6E70023E4E7094B0093BD
:1056F00043463A460121FFF709FD0446DDE74046EF
:1057000000F03AF9DAE70024D8E70024D6E70446A7
:10571000D4E700BF11550008EFF305836BB90A46C3
:1057200070B100B583B000930421FFF733FD012869
:1057300009D1002003B05DF804FB6FF0050070474D
:105740006FF0030070476FF00200F3E7EFF305839B
:1057500093B910B582B0044688B1FFF7ACFE88B1AA
:1057600000220092134603212046FFF713FD012873
:105770000BD1002002B010BD6FF0050070476FF034
:105780000300F7E76FF00200F4E74FF0FF30F1E7B6
:10579000034B0360034B0B6080231360704700BF13
:1057A000D8100020D80E0020034B0360034B0B6081
:1057B0004FF48073136070473815002038110020B3
:1057C000124A12F0070F1ED0D11D21F00701C1F5BA
:1057D0007A5313440A460E48026000214160134484
:1057E000083B23F007030B48036059601960991ABE
:1057F00051601360084B1960084B1960084B4FF05B
:1058000000421A6070474FF47A53E4E7981500207D
:105810002C54002094150020205400201C540020FB
:105820001854002010B4134B1A461B688342FBD354
:105830005168541884420AD041684418A3420BD0DE
:105840000360904200D010605DF8044B70474068E0
:10585000014451601046EFE7074C2468A34206D08C
:105860005B681944416013681B680360E9E70460E2
:10587000E7E700BF2C5400209415002070B50446C3
:10588000FFF7CCF8364B1B68A3B1364B1B681C42A4
:105890004ED134B1083414F0070F02D024F00704BD
:1058A0000834002C46D0304B1B68A34251D32F4BF9
:1058B0001D6804E0FFF784FFE7E72B4615466A689A
:1058C000A24202D22A68002AF7D1254A1268AA42C7
:1058D00041D01E6808362A681A606B681B1B102BA3
:1058E00010D9281910F0070F08D04FF0500383F398
:1058F0001188BFF36F8FBFF34F8FFEE743606C607B
:10590000FFF790FF6A6818490B689B1A0B601849EB
:1059100009688B4201D216490B60124B1B68134376
:105920006B6000232B60134A13680133136002E09D
:10593000002600E00026FFF70DF916F0070F0CD047
:105940004FF0500383F31188BFF36F8FBFF34F8F76
:10595000FEE70026EFE70026EDE7304670BD00BF0A
:1059600094150020185400201C5400202C540020B2
:105970002054002024540020002834D038B5044698
:10598000A0F1080550F8043C174A1268134208D1E8
:105990004FF0500383F31188BFF36F8FBFF34F8F26
:1059A000FEE750F8081C41B14FF0500383F3118813
:1059B000BFF36F8FBFF34F8FFEE723EA020340F878
:1059C000043CFFF72BF854F8041C084A13680B44F6
:1059D00013602846FFF726FF054A1368013313605A
:1059E000FFF7B8F838BD7047185400201C54002049
:1059F0002854002082B0002301930D4B1B68B3F1A3
:105A0000FF3F08D04FF0500383F31188BFF36F8F2F
:105A1000BFF34F8FFEE74FF0500383F31188BFF3BE
:105A20006F8FBFF34F8F019B002BFCD002B07047EC
:105A30005008002008480068006880F308884FF08C
:105A4000000080F3148862B661B6BFF34F8FBFF3D6
:105A50006F8F00DF00BF000008ED00E0DFF80C00F2
:105A6000016841F4700101607047000088ED00E0BA
:105A70004FF0807340F8043C21F0010140F8081C0D
:105A8000054B40F80C3C40F8202C6FF0020340F826
:105A9000243C4438704700BFF5590008000000005E
:105AA000074B19680868B0E8F04F80F30988BFF326
:105AB0006F8F4FF0000080F311887047AFF30080C4
:105AC000B00800204FF0500383F31188BFF36F8FAD
:105AD000BFF34F8F0A4A136801331360012B00D0C4
:105AE0007047084B1B6813F0FF0FF9D04FF05003BD
